{
  "contractName": "AddressImpl",
  "abi": [
    {
      "payable": true,
      "stateMutability": "payable",
      "type": "fallback"
    },
    {
      "constant": true,
      "inputs": [
        {
          "internalType": "address",
          "name": "account",
          "type": "address"
        }
      ],
      "name": "isContract",
      "outputs": [
        {
          "internalType": "bool",
          "name": "",
          "type": "bool"
        }
      ],
      "payable": false,
      "stateMutability": "view",
      "type": "function"
    },
    {
      "constant": true,
      "inputs": [
        {
          "internalType": "address",
          "name": "account",
          "type": "address"
        }
      ],
      "name": "toPayable",
      "outputs": [
        {
          "internalType": "address payable",
          "name": "",
          "type": "address"
        }
      ],
      "payable": false,
      "stateMutability": "pure",
      "type": "function"
    },
    {
      "constant": false,
      "inputs": [
        {
          "internalType": "address payable",
          "name": "receiver",
          "type": "address"
        },
        {
          "internalType": "uint256",
          "name": "amount",
          "type": "uint256"
        }
      ],
      "name": "sendValue",
      "outputs": [],
      "payable": false,
      "stateMutability": "nonpayable",
      "type": "function"
    }
  ],
  "bytecode": "0x608060405234801561001057600080fd5b506103d2806100206000396000f3fe6080604052600436106100345760003560e01c8063162790551461003657806324a084df1461009f57806351ecabd6146100fa575b005b34801561004257600080fd5b506100856004803603602081101561005957600080fd5b81019080803573ffffffffffffffffffffffffffffffffffffffff16906020019092919050505061018b565b604051808215151515815260200191505060405180910390f35b3480156100ab57600080fd5b506100f8600480360360408110156100c257600080fd5b81019080803573ffffffffffffffffffffffffffffffffffffffff1690602001909291908035906020019092919050505061019d565b005b34801561010657600080fd5b506101496004803603602081101561011d57600080fd5b81019080803573ffffffffffffffffffffffffffffffffffffffff1690602001909291905050506101ab565b604051808273ffffffffffffffffffffffffffffffffffffffff1673ffffffffffffffffffffffffffffffffffffffff16815260200191505060405180910390f35b6000610196826101bd565b9050919050565b6101a78282610208565b5050565b60006101b682610359565b9050919050565b60008060007fc5d2460186f7233c927e7db2dcc703c0e500b653ca82273b7bfad8045d85a47060001b9050833f91506000801b82141580156101ff5750808214155b92505050919050565b803073ffffffffffffffffffffffffffffffffffffffff16311015610295576040517f08c379a000000000000000000000000000000000000000000000000000000000815260040180806020018281038252601d8152602001807f416464726573733a20696e73756666696369656e742062616c616e636500000081525060200191505060405180910390fd5b60008273ffffffffffffffffffffffffffffffffffffffff168260405180600001905060006040518083038185875af1925050503d80600081146102f5576040519150601f19603f3d011682016040523d82523d6000602084013e6102fa565b606091505b5050905080610354576040517f08c379a000000000000000000000000000000000000000000000000000000000815260040180806020018281038252603a815260200180610364603a913960400191505060405180910390fd5b505050565b600081905091905056fe416464726573733a20756e61626c6520746f2073656e642076616c75652c20726563697069656e74206d61792068617665207265766572746564a265627a7a72315820e07481db6d4920017755501e0d01b3c3c9e73d5e7741de604d43118988d76b7864736f6c634300050c0032",
  "source": "pragma solidity ^0.5.0;\n\nimport \"../utils/Address.sol\";\n\ncontract AddressImpl {\n    function isContract(address account) external view returns (bool) {\n        return Address.isContract(account);\n    }\n\n    function toPayable(address account) external pure returns (address payable) {\n        return Address.toPayable(account);\n    }\n\n    function sendValue(address payable receiver, uint256 amount) external {\n        Address.sendValue(receiver, amount);\n    }\n\n    function () external payable { } // sendValue's tests require the contract to hold Ether\n}\n",
  "sourcePath": "C:/Users/Gayardo/Desktop/monnaieWork/Ux_Ethereum/contracts/library/mocks/AddressImpl.sol",
  "compiler": {
    "name": "solc",
    "version": "0.5.12+commit.7709ece9.Emscripten.clang"
  },
  "schemaVersion": "3.0.19",
  "updatedAt": "2019-12-04T11:28:58.639Z",
  "devdoc": {
    "methods": {}
  },
  "userdoc": {
    "methods": {}
  }
}