{
  "contractName": "RefundableCrowdsaleImpl",
  "abi": [
    {
      "inputs": [
        {
          "internalType": "uint256",
          "name": "openingTime",
          "type": "uint256"
        },
        {
          "internalType": "uint256",
          "name": "closingTime",
          "type": "uint256"
        },
        {
          "internalType": "uint256",
          "name": "rate",
          "type": "uint256"
        },
        {
          "internalType": "address payable",
          "name": "wallet",
          "type": "address"
        },
        {
          "internalType": "contract IERC20",
          "name": "token",
          "type": "address"
        },
        {
          "internalType": "uint256",
          "name": "goal",
          "type": "uint256"
        }
      ],
      "payable": false,
      "stateMutability": "nonpayable",
      "type": "constructor"
    },
    {
      "anonymous": false,
      "inputs": [],
      "name": "CrowdsaleFinalized",
      "type": "event"
    },
    {
      "anonymous": false,
      "inputs": [
        {
          "indexed": false,
          "internalType": "uint256",
          "name": "prevClosingTime",
          "type": "uint256"
        },
        {
          "indexed": false,
          "internalType": "uint256",
          "name": "newClosingTime",
          "type": "uint256"
        }
      ],
      "name": "TimedCrowdsaleExtended",
      "type": "event"
    },
    {
      "anonymous": false,
      "inputs": [
        {
          "indexed": true,
          "internalType": "address",
          "name": "purchaser",
          "type": "address"
        },
        {
          "indexed": true,
          "internalType": "address",
          "name": "beneficiary",
          "type": "address"
        },
        {
          "indexed": false,
          "internalType": "uint256",
          "name": "value",
          "type": "uint256"
        },
        {
          "indexed": false,
          "internalType": "uint256",
          "name": "amount",
          "type": "uint256"
        }
      ],
      "name": "TokensPurchased",
      "type": "event"
    },
    {
      "payable": true,
      "stateMutability": "payable",
      "type": "fallback"
    },
    {
      "constant": false,
      "inputs": [
        {
          "internalType": "address",
          "name": "beneficiary",
          "type": "address"
        }
      ],
      "name": "buyTokens",
      "outputs": [],
      "payable": true,
      "stateMutability": "payable",
      "type": "function"
    },
    {
      "constant": false,
      "inputs": [
        {
          "internalType": "address payable",
          "name": "refundee",
          "type": "address"
        }
      ],
      "name": "claimRefund",
      "outputs": [],
      "payable": false,
      "stateMutability": "nonpayable",
      "type": "function"
    },
    {
      "constant": true,
      "inputs": [],
      "name": "closingTime",
      "outputs": [
        {
          "internalType": "uint256",
          "name": "",
          "type": "uint256"
        }
      ],
      "payable": false,
      "stateMutability": "view",
      "type": "function"
    },
    {
      "constant": false,
      "inputs": [],
      "name": "finalize",
      "outputs": [],
      "payable": false,
      "stateMutability": "nonpayable",
      "type": "function"
    },
    {
      "constant": true,
      "inputs": [],
      "name": "finalized",
      "outputs": [
        {
          "internalType": "bool",
          "name": "",
          "type": "bool"
        }
      ],
      "payable": false,
      "stateMutability": "view",
      "type": "function"
    },
    {
      "constant": true,
      "inputs": [],
      "name": "goal",
      "outputs": [
        {
          "internalType": "uint256",
          "name": "",
          "type": "uint256"
        }
      ],
      "payable": false,
      "stateMutability": "view",
      "type": "function"
    },
    {
      "constant": true,
      "inputs": [],
      "name": "goalReached",
      "outputs": [
        {
          "internalType": "bool",
          "name": "",
          "type": "bool"
        }
      ],
      "payable": false,
      "stateMutability": "view",
      "type": "function"
    },
    {
      "constant": true,
      "inputs": [],
      "name": "hasClosed",
      "outputs": [
        {
          "internalType": "bool",
          "name": "",
          "type": "bool"
        }
      ],
      "payable": false,
      "stateMutability": "view",
      "type": "function"
    },
    {
      "constant": true,
      "inputs": [],
      "name": "isOpen",
      "outputs": [
        {
          "internalType": "bool",
          "name": "",
          "type": "bool"
        }
      ],
      "payable": false,
      "stateMutability": "view",
      "type": "function"
    },
    {
      "constant": true,
      "inputs": [],
      "name": "openingTime",
      "outputs": [
        {
          "internalType": "uint256",
          "name": "",
          "type": "uint256"
        }
      ],
      "payable": false,
      "stateMutability": "view",
      "type": "function"
    },
    {
      "constant": true,
      "inputs": [],
      "name": "rate",
      "outputs": [
        {
          "internalType": "uint256",
          "name": "",
          "type": "uint256"
        }
      ],
      "payable": false,
      "stateMutability": "view",
      "type": "function"
    },
    {
      "constant": true,
      "inputs": [],
      "name": "token",
      "outputs": [
        {
          "internalType": "contract IERC20",
          "name": "",
          "type": "address"
        }
      ],
      "payable": false,
      "stateMutability": "view",
      "type": "function"
    },
    {
      "constant": true,
      "inputs": [],
      "name": "wallet",
      "outputs": [
        {
          "internalType": "address payable",
          "name": "",
          "type": "address"
        }
      ],
      "payable": false,
      "stateMutability": "view",
      "type": "function"
    },
    {
      "constant": true,
      "inputs": [],
      "name": "weiRaised",
      "outputs": [
        {
          "internalType": "uint256",
          "name": "",
          "type": "uint256"
        }
      ],
      "payable": false,
      "stateMutability": "view",
      "type": "function"
    }
  ],
  "bytecode": "0x60806040523480156200001157600080fd5b5060405162002f1238038062002f12833981810160405260c08110156200003757600080fd5b8101908080519060200190929190805190602001909291908051906020019092919080519060200190929190805190602001909291908051906020019092919050505080868686868660016000806101000a81548160ff0219169083151502179055506000831162000111576040517f08c379a00000000000000000000000000000000000000000000000000000000081526004018080602001828103825260148152602001807f43726f776473616c653a2072617465206973203000000000000000000000000081525060200191505060405180910390fd5b600073ffffffffffffffffffffffffffffffffffffffff168273ffffffffffffffffffffffffffffffffffffffff16141562000199576040517f08c379a000000000000000000000000000000000000000000000000000000000815260040180806020018281038252602581526020018062002eed6025913960400191505060405180910390fd5b600073ffffffffffffffffffffffffffffffffffffffff168173ffffffffffffffffffffffffffffffffffffffff16141562000221576040517f08c379a000000000000000000000000000000000000000000000000000000000815260040180806020018281038252602481526020018062002ec96024913960400191505060405180910390fd5b8260028190555081600160006101000a81548173ffffffffffffffffffffffffffffffffffffffff021916908373ffffffffffffffffffffffffffffffffffffffff16021790555080600060016101000a81548173ffffffffffffffffffffffffffffffffffffffff021916908373ffffffffffffffffffffffffffffffffffffffff1602179055505050504282101562000308576040517f08c379a000000000000000000000000000000000000000000000000000000000815260040180806020018281038252603381526020018062002e5f6033913960400191505060405180910390fd5b81811162000362576040517f08c379a000000000000000000000000000000000000000000000000000000000815260040180806020018281038252603781526020018062002e926037913960400191505060405180910390fd5b816004819055508060058190555050506000600660006101000a81548160ff0219169083151502179055506000811162000404576040517f08c379a000000000000000000000000000000000000000000000000000000000815260040180806020018281038252601e8152602001807f526566756e6461626c6543726f776473616c653a20676f616c2069732030000081525060200191505060405180910390fd5b62000414620004ca60201b60201c565b6040516200042290620004f4565b808273ffffffffffffffffffffffffffffffffffffffff1673ffffffffffffffffffffffffffffffffffffffff168152602001915050604051809103906000f08015801562000475573d6000803e3d6000fd5b50600860006101000a81548173ffffffffffffffffffffffffffffffffffffffff021916908373ffffffffffffffffffffffffffffffffffffffff160217905550806007819055505050505050505062000502565b6000600160009054906101000a900473ffffffffffffffffffffffffffffffffffffffff16905090565b61166080620017ff83390190565b6112ed80620005126000396000f3fe6080604052600436106100dd5760003560e01c8063521eb2731161007f578063b7a8807c11610059578063b7a8807c146102c5578063bffa55d5146102f0578063ec8ac4d814610341578063fc0c546a14610385576100dd565b8063521eb273146102105780637d3d652214610267578063b3f05b9714610296576100dd565b80634042b66f116100bb5780634042b66f1461017457806347535d7b1461019f5780634b6753bc146101ce5780634bb278f3146101f9576100dd565b80631515bc2b146100ef5780632c4e722e1461011e5780634019388314610149575b6100ed6100e86103dc565b6103e4565b005b3480156100fb57600080fd5b5061010461056f565b604051808215151515815260200191505060405180910390f35b34801561012a57600080fd5b5061013361057b565b6040518082815260200191505060405180910390f35b34801561015557600080fd5b5061015e610585565b6040518082815260200191505060405180910390f35b34801561018057600080fd5b5061018961058f565b6040518082815260200191505060405180910390f35b3480156101ab57600080fd5b506101b4610599565b604051808215151515815260200191505060405180910390f35b3480156101da57600080fd5b506101e36105b4565b6040518082815260200191505060405180910390f35b34801561020557600080fd5b5061020e6105be565b005b34801561021c57600080fd5b506102256106ef565b604051808273ffffffffffffffffffffffffffffffffffffffff1673ffffffffffffffffffffffffffffffffffffffff16815260200191505060405180910390f35b34801561027357600080fd5b5061027c610719565b604051808215151515815260200191505060405180910390f35b3480156102a257600080fd5b506102ab61072d565b604051808215151515815260200191505060405180910390f35b3480156102d157600080fd5b506102da610744565b6040518082815260200191505060405180910390f35b3480156102fc57600080fd5b5061033f6004803603602081101561031357600080fd5b81019080803573ffffffffffffffffffffffffffffffffffffffff16906020019092919050505061074e565b005b6103836004803603602081101561035757600080fd5b81019080803573ffffffffffffffffffffffffffffffffffffffff1690602001909291905050506103e4565b005b34801561039157600080fd5b5061039a6108c5565b604051808273ffffffffffffffffffffffffffffffffffffffff1673ffffffffffffffffffffffffffffffffffffffff16815260200191505060405180910390f35b600033905090565b6000809054906101000a900460ff16610465576040517f08c379a000000000000000000000000000000000000000000000000000000000815260040180806020018281038252601f8152602001807f5265656e7472616e637947756172643a207265656e7472616e742063616c6c0081525060200191505060405180910390fd5b60008060006101000a81548160ff021916908315150217905550600034905061048e82826108ee565b600061049982610976565b90506104b08260035461099490919063ffffffff16565b6003819055506104c08382610a1c565b8273ffffffffffffffffffffffffffffffffffffffff166104df6103dc565b73ffffffffffffffffffffffffffffffffffffffff167f6faf93231a456e552dbc9961f58d9713ee4f2e69d15f1975b050ef0911053a7b8484604051808381526020018281526020019250505060405180910390a361053e8383610a2a565b610546610a2e565b6105508383610af1565b505060016000806101000a81548160ff02191690831515021790555050565b60006005544211905090565b6000600254905090565b6000600754905090565b6000600354905090565b600060045442101580156105af57506005544211155b905090565b6000600554905090565b600660009054906101000a900460ff1615610624576040517f08c379a00000000000000000000000000000000000000000000000000000000081526004018080602001828103825260278152602001806111fb6027913960400191505060405180910390fd5b61062c61056f565b61069e576040517f08c379a00000000000000000000000000000000000000000000000000000000081526004018080602001828103825260208152602001807f46696e616c697a61626c6543726f776473616c653a206e6f7420636c6f73656481525060200191505060405180910390fd5b6001600660006101000a81548160ff0219169083151502179055506106c1610af5565b7f9270cc390c096600a1c17c44345a1ba689fafd99d97487b10cfccf86cf73183660405160405180910390a1565b6000600160009054906101000a900473ffffffffffffffffffffffffffffffffffffffff16905090565b600060075461072661058f565b1015905090565b6000600660009054906101000a900460ff16905090565b6000600454905090565b61075661072d565b6107ab576040517f08c379a000000000000000000000000000000000000000000000000000000000815260040180806020018281038252602281526020018061126d6022913960400191505060405180910390fd5b6107b3610719565b15610809576040517f08c379a00000000000000000000000000000000000000000000000000000000081526004018080602001828103825260218152602001806112226021913960400191505060405180910390fd5b600860009054906101000a900473ffffffffffffffffffffffffffffffffffffffff1673ffffffffffffffffffffffffffffffffffffffff166351cff8d9826040518263ffffffff1660e01b8152600401808273ffffffffffffffffffffffffffffffffffffffff1673ffffffffffffffffffffffffffffffffffffffff168152602001915050600060405180830381600087803b1580156108aa57600080fd5b505af11580156108be573d6000803e3d6000fd5b5050505050565b60008060019054906101000a900473ffffffffffffffffffffffffffffffffffffffff16905090565b6108f6610599565b610968576040517f08c379a00000000000000000000000000000000000000000000000000000000081526004018080602001828103825260188152602001807f54696d656443726f776473616c653a206e6f74206f70656e000000000000000081525060200191505060405180910390fd5b6109728282610c98565b5050565b600061098d60025483610d9990919063ffffffff16565b9050919050565b600080828401905083811015610a12576040517f08c379a000000000000000000000000000000000000000000000000000000000815260040180806020018281038252601b8152602001807f536166654d6174683a206164646974696f6e206f766572666c6f77000000000081525060200191505060405180910390fd5b8091505092915050565b610a268282610e1f565b5050565b5050565b600860009054906101000a900473ffffffffffffffffffffffffffffffffffffffff1673ffffffffffffffffffffffffffffffffffffffff1663f340fa0134610a756103dc565b6040518363ffffffff1660e01b8152600401808273ffffffffffffffffffffffffffffffffffffffff1673ffffffffffffffffffffffffffffffffffffffff1681526020019150506000604051808303818588803b158015610ad657600080fd5b505af1158015610aea573d6000803e3d6000fd5b5050505050565b5050565b610afd610719565b15610c0b57600860009054906101000a900473ffffffffffffffffffffffffffffffffffffffff1673ffffffffffffffffffffffffffffffffffffffff166343d726d66040518163ffffffff1660e01b8152600401600060405180830381600087803b158015610b6c57600080fd5b505af1158015610b80573d6000803e3d6000fd5b50505050600860009054906101000a900473ffffffffffffffffffffffffffffffffffffffff1673ffffffffffffffffffffffffffffffffffffffff16639af6549a6040518163ffffffff1660e01b8152600401600060405180830381600087803b158015610bee57600080fd5b505af1158015610c02573d6000803e3d6000fd5b50505050610c8e565b600860009054906101000a900473ffffffffffffffffffffffffffffffffffffffff1673ffffffffffffffffffffffffffffffffffffffff16638c52dc416040518163ffffffff1660e01b8152600401600060405180830381600087803b158015610c7557600080fd5b505af1158015610c89573d6000803e3d6000fd5b505050505b610c96610e70565b565b600073ffffffffffffffffffffffffffffffffffffffff168273ffffffffffffffffffffffffffffffffffffffff161415610d1e576040517f08c379a000000000000000000000000000000000000000000000000000000000815260040180806020018281038252602a815260200180611243602a913960400191505060405180910390fd5b6000811415610d95576040517f08c379a00000000000000000000000000000000000000000000000000000000081526004018080602001828103825260198152602001807f43726f776473616c653a20776569416d6f756e7420697320300000000000000081525060200191505060405180910390fd5b5050565b600080831415610dac5760009050610e19565b6000828402905082848281610dbd57fe5b0414610e14576040517f08c379a00000000000000000000000000000000000000000000000000000000081526004018080602001828103825260218152602001806111da6021913960400191505060405180910390fd5b809150505b92915050565b610e6c8282600060019054906101000a900473ffffffffffffffffffffffffffffffffffffffff1673ffffffffffffffffffffffffffffffffffffffff16610e729092919063ffffffff16565b5050565b565b610f3e838473ffffffffffffffffffffffffffffffffffffffff1663a9059cbb905060e01b8484604051602401808373ffffffffffffffffffffffffffffffffffffffff1673ffffffffffffffffffffffffffffffffffffffff16815260200182815260200192505050604051602081830303815290604052907bffffffffffffffffffffffffffffffffffffffffffffffffffffffff19166020820180517bffffffffffffffffffffffffffffffffffffffffffffffffffffffff8381831617835250505050610f43565b505050565b610f628273ffffffffffffffffffffffffffffffffffffffff1661118e565b610fd4576040517f08c379a000000000000000000000000000000000000000000000000000000000815260040180806020018281038252601f8152602001807f5361666545524332303a2063616c6c20746f206e6f6e2d636f6e74726163740081525060200191505060405180910390fd5b600060608373ffffffffffffffffffffffffffffffffffffffff16836040518082805190602001908083835b602083106110235780518252602082019150602081019050602083039250611000565b6001836020036101000a0380198251168184511680821785525050505050509050019150506000604051808303816000865af19150503d8060008114611085576040519150601f19603f3d011682016040523d82523d6000602084013e61108a565b606091505b509150915081611102576040517f08c379a00000000000000000000000000000000000000000000000000000000081526004018080602001828103825260208152602001807f5361666545524332303a206c6f772d6c6576656c2063616c6c206661696c656481525060200191505060405180910390fd5b6000815111156111885780806020019051602081101561112157600080fd5b8101908080519060200190929190505050611187576040517f08c379a000000000000000000000000000000000000000000000000000000000815260040180806020018281038252602a81526020018061128f602a913960400191505060405180910390fd5b5b50505050565b60008060007fc5d2460186f7233c927e7db2dcc703c0e500b653ca82273b7bfad8045d85a47060001b9050833f91506000801b82141580156111d05750808214155b9250505091905056fe536166654d6174683a206d756c7469706c69636174696f6e206f766572666c6f7746696e616c697a61626c6543726f776473616c653a20616c72656164792066696e616c697a6564526566756e6461626c6543726f776473616c653a20676f616c207265616368656443726f776473616c653a2062656e656669636961727920697320746865207a65726f2061646472657373526566756e6461626c6543726f776473616c653a206e6f742066696e616c697a65645361666545524332303a204552433230206f7065726174696f6e20646964206e6f742073756363656564a265627a7a7231582094f7a0d420ddde68ef7d56d4b73ddca8d069ac6952fdd58328b867604f54ca7064736f6c634300050c0032608060405234801561001057600080fd5b506040516116603803806116608339818101604052602081101561003357600080fd5b810190808051906020019092919050505060006100546101eb60201b60201c565b9050806000806101000a81548173ffffffffffffffffffffffffffffffffffffffff021916908373ffffffffffffffffffffffffffffffffffffffff1602179055507f4101e71e974f68df5e9730cc223280b41654676bbb052cdcc735c3337e64d2d981604051808273ffffffffffffffffffffffffffffffffffffffff1673ffffffffffffffffffffffffffffffffffffffff16815260200191505060405180910390a150600073ffffffffffffffffffffffffffffffffffffffff168173ffffffffffffffffffffffffffffffffffffffff161415610180576040517f08c379a000000000000000000000000000000000000000000000000000000000815260040180806020018281038252602d815260200180611633602d913960400191505060405180910390fd5b80600260016101000a81548173ffffffffffffffffffffffffffffffffffffffff021916908373ffffffffffffffffffffffffffffffffffffffff1602179055506000600260006101000a81548160ff021916908360028111156101e057fe5b0217905550506101f3565b600033905090565b611431806102026000396000f3fe6080604052600436106100a75760003560e01c80638c52dc41116100645780638c52dc41146102765780639af6549a1461028d578063c19d93fb146102a4578063c6dbdf61146102dd578063e3a9db1a14610334578063f340fa0114610399576100a7565b80632348238c146100ac57806338af3eed146100fd57806343d726d61461015457806351cff8d91461016b5780636809691a146101bc578063685ca1941461020d575b600080fd5b3480156100b857600080fd5b506100fb600480360360208110156100cf57600080fd5b81019080803573ffffffffffffffffffffffffffffffffffffffff1690602001909291905050506103dd565b005b34801561010957600080fd5b506101126105b5565b604051808273ffffffffffffffffffffffffffffffffffffffff1673ffffffffffffffffffffffffffffffffffffffff16815260200191505060405180910390f35b34801561016057600080fd5b506101696105df565b005b34801561017757600080fd5b506101ba6004803603602081101561018e57600080fd5b81019080803573ffffffffffffffffffffffffffffffffffffffff16906020019092919050505061075a565b005b3480156101c857600080fd5b5061020b600480360360208110156101df57600080fd5b81019080803573ffffffffffffffffffffffffffffffffffffffff1690602001909291905050506107c4565b005b34801561021957600080fd5b5061025c6004803603602081101561023057600080fd5b81019080803573ffffffffffffffffffffffffffffffffffffffff169060200190929190505050610974565b604051808215151515815260200191505060405180910390f35b34801561028257600080fd5b5061028b6109a6565b005b34801561029957600080fd5b506102a2610b22565b005b3480156102b057600080fd5b506102b9610c21565b604051808260028111156102c957fe5b60ff16815260200191505060405180910390f35b3480156102e957600080fd5b506102f2610c38565b604051808273ffffffffffffffffffffffffffffffffffffffff1673ffffffffffffffffffffffffffffffffffffffff16815260200191505060405180910390f35b34801561034057600080fd5b506103836004803603602081101561035757600080fd5b81019080803573ffffffffffffffffffffffffffffffffffffffff169060200190929190505050610c61565b6040518082815260200191505060405180910390f35b6103db600480360360208110156103af57600080fd5b81019080803573ffffffffffffffffffffffffffffffffffffffff169060200190929190505050610caa565b005b6000809054906101000a900473ffffffffffffffffffffffffffffffffffffffff1673ffffffffffffffffffffffffffffffffffffffff1661041d610d34565b73ffffffffffffffffffffffffffffffffffffffff1614610489576040517f08c379a000000000000000000000000000000000000000000000000000000000815260040180806020018281038252602c81526020018061139f602c913960400191505060405180910390fd5b600073ffffffffffffffffffffffffffffffffffffffff168173ffffffffffffffffffffffffffffffffffffffff16141561050f576040517f08c379a000000000000000000000000000000000000000000000000000000000815260040180806020018281038252602a815260200180611375602a913960400191505060405180910390fd5b806000806101000a81548173ffffffffffffffffffffffffffffffffffffffff021916908373ffffffffffffffffffffffffffffffffffffffff1602179055507f4101e71e974f68df5e9730cc223280b41654676bbb052cdcc735c3337e64d2d981604051808273ffffffffffffffffffffffffffffffffffffffff1673ffffffffffffffffffffffffffffffffffffffff16815260200191505060405180910390a150565b6000600260019054906101000a900473ffffffffffffffffffffffffffffffffffffffff16905090565b6000809054906101000a900473ffffffffffffffffffffffffffffffffffffffff1673ffffffffffffffffffffffffffffffffffffffff1661061f610d34565b73ffffffffffffffffffffffffffffffffffffffff161461068b576040517f08c379a000000000000000000000000000000000000000000000000000000000815260040180806020018281038252602c81526020018061139f602c913960400191505060405180910390fd5b6000600281111561069857fe5b600260009054906101000a900460ff1660028111156106b357fe5b14610709576040517f08c379a000000000000000000000000000000000000000000000000000000000815260040180806020018281038252602981526020018061134c6029913960400191505060405180910390fd5b60028060006101000a81548160ff0219169083600281111561072757fe5b02179055507f088672c3a6e342f7cd94a65ba63b79df24a8973927b4d05d803c44bbf787d12f60405160405180910390a1565b61076381610974565b6107b8576040517f08c379a00000000000000000000000000000000000000000000000000000000081526004018080602001828103825260338152602001806113196033913960400191505060405180910390fd5b6107c181610d3c565b50565b6000809054906101000a900473ffffffffffffffffffffffffffffffffffffffff1673ffffffffffffffffffffffffffffffffffffffff16610804610d34565b73ffffffffffffffffffffffffffffffffffffffff1614610870576040517f08c379a000000000000000000000000000000000000000000000000000000000815260040180806020018281038252602c81526020018061139f602c913960400191505060405180910390fd5b6000600160008373ffffffffffffffffffffffffffffffffffffffff1673ffffffffffffffffffffffffffffffffffffffff1681526020019081526020016000205490506000600160008473ffffffffffffffffffffffffffffffffffffffff1673ffffffffffffffffffffffffffffffffffffffff16815260200190815260200160002081905550610922818373ffffffffffffffffffffffffffffffffffffffff16610f0a90919063ffffffff16565b8173ffffffffffffffffffffffffffffffffffffffff167f7084f5476618d8e60b11ef0d7d3f06914655adb8793e28ff7f018d4c76d505d5826040518082815260200191505060405180910390a25050565b60006001600281111561098357fe5b600260009054906101000a900460ff16600281111561099e57fe5b149050919050565b6000809054906101000a900473ffffffffffffffffffffffffffffffffffffffff1673ffffffffffffffffffffffffffffffffffffffff166109e6610d34565b73ffffffffffffffffffffffffffffffffffffffff1614610a52576040517f08c379a000000000000000000000000000000000000000000000000000000000815260040180806020018281038252602c81526020018061139f602c913960400191505060405180910390fd5b60006002811115610a5f57fe5b600260009054906101000a900460ff166002811115610a7a57fe5b14610ad0576040517f08c379a00000000000000000000000000000000000000000000000000000000081526004018080602001828103825260328152602001806113cb6032913960400191505060405180910390fd5b6001600260006101000a81548160ff02191690836002811115610aef57fe5b02179055507f599d8e5a83cffb867d051598c4d70e805d59802d8081c1c7d6dffc5b6aca2b8960405160405180910390a1565b600280811115610b2e57fe5b600260009054906101000a900460ff166002811115610b4957fe5b14610b9f576040517f08c379a000000000000000000000000000000000000000000000000000000000815260040180806020018281038252603881526020018061127c6038913960400191505060405180910390fd5b600260019054906101000a900473ffffffffffffffffffffffffffffffffffffffff1673ffffffffffffffffffffffffffffffffffffffff166108fc3073ffffffffffffffffffffffffffffffffffffffff16319081150290604051600060405180830381858888f19350505050158015610c1e573d6000803e3d6000fd5b50565b6000600260009054906101000a900460ff16905090565b60008060009054906101000a900473ffffffffffffffffffffffffffffffffffffffff16905090565b6000600160008373ffffffffffffffffffffffffffffffffffffffff1673ffffffffffffffffffffffffffffffffffffffff168152602001908152602001600020549050919050565b60006002811115610cb757fe5b600260009054906101000a900460ff166002811115610cd257fe5b14610d28576040517f08c379a000000000000000000000000000000000000000000000000000000000815260040180806020018281038252602b8152602001806112ee602b913960400191505060405180910390fd5b610d318161105b565b50565b600033905090565b6000809054906101000a900473ffffffffffffffffffffffffffffffffffffffff1673ffffffffffffffffffffffffffffffffffffffff16610d7c610d34565b73ffffffffffffffffffffffffffffffffffffffff1614610de8576040517f08c379a000000000000000000000000000000000000000000000000000000000815260040180806020018281038252602c81526020018061139f602c913960400191505060405180910390fd5b6000600160008373ffffffffffffffffffffffffffffffffffffffff1673ffffffffffffffffffffffffffffffffffffffff1681526020019081526020016000205490506000600160008473ffffffffffffffffffffffffffffffffffffffff1673ffffffffffffffffffffffffffffffffffffffff168152602001908152602001600020819055508173ffffffffffffffffffffffffffffffffffffffff166108fc829081150290604051600060405180830381858888f19350505050158015610eb7573d6000803e3d6000fd5b508173ffffffffffffffffffffffffffffffffffffffff167f7084f5476618d8e60b11ef0d7d3f06914655adb8793e28ff7f018d4c76d505d5826040518082815260200191505060405180910390a25050565b803073ffffffffffffffffffffffffffffffffffffffff16311015610f97576040517f08c379a000000000000000000000000000000000000000000000000000000000815260040180806020018281038252601d8152602001807f416464726573733a20696e73756666696369656e742062616c616e636500000081525060200191505060405180910390fd5b60008273ffffffffffffffffffffffffffffffffffffffff168260405180600001905060006040518083038185875af1925050503d8060008114610ff7576040519150601f19603f3d011682016040523d82523d6000602084013e610ffc565b606091505b5050905080611056576040517f08c379a000000000000000000000000000000000000000000000000000000000815260040180806020018281038252603a8152602001806112b4603a913960400191505060405180910390fd5b505050565b6000809054906101000a900473ffffffffffffffffffffffffffffffffffffffff1673ffffffffffffffffffffffffffffffffffffffff1661109b610d34565b73ffffffffffffffffffffffffffffffffffffffff1614611107576040517f08c379a000000000000000000000000000000000000000000000000000000000815260040180806020018281038252602c81526020018061139f602c913960400191505060405180910390fd5b600034905061115e81600160008573ffffffffffffffffffffffffffffffffffffffff1673ffffffffffffffffffffffffffffffffffffffff168152602001908152602001600020546111f390919063ffffffff16565b600160008473ffffffffffffffffffffffffffffffffffffffff1673ffffffffffffffffffffffffffffffffffffffff168152602001908152602001600020819055508173ffffffffffffffffffffffffffffffffffffffff167f2da466a7b24304f47e87fa2e1e5a81b9831ce54fec19055ce277ca2f39ba42c4826040518082815260200191505060405180910390a25050565b600080828401905083811015611271576040517f08c379a000000000000000000000000000000000000000000000000000000000815260040180806020018281038252601b8152602001807f536166654d6174683a206164646974696f6e206f766572666c6f77000000000081525060200191505060405180910390fd5b809150509291505056fe526566756e64457363726f773a2062656e65666963696172792063616e206f6e6c79207769746864726177207768696c6520636c6f736564416464726573733a20756e61626c6520746f2073656e642076616c75652c20726563697069656e74206d61792068617665207265766572746564526566756e64457363726f773a2063616e206f6e6c79206465706f736974207768696c6520616374697665436f6e646974696f6e616c457363726f773a207061796565206973206e6f7420616c6c6f77656420746f207769746864726177526566756e64457363726f773a2063616e206f6e6c7920636c6f7365207768696c65206163746976655365636f6e646172793a206e6577207072696d61727920697320746865207a65726f20616464726573735365636f6e646172793a2063616c6c6572206973206e6f7420746865207072696d617279206163636f756e74526566756e64457363726f773a2063616e206f6e6c7920656e61626c6520726566756e6473207768696c6520616374697665a265627a7a7231582033d5fb4cdaf0c12f9e4ae981ab1162171032759b5bb068bbb11039d312db520164736f6c634300050c0032526566756e64457363726f773a2062656e656669636961727920697320746865207a65726f206164647265737354696d656443726f776473616c653a206f70656e696e672074696d65206973206265666f72652063757272656e742074696d6554696d656443726f776473616c653a206f70656e696e672074696d65206973206e6f74206265666f726520636c6f73696e672074696d6543726f776473616c653a20746f6b656e20697320746865207a65726f206164647265737343726f776473616c653a2077616c6c657420697320746865207a65726f2061646472657373",
  "source": "pragma solidity ^0.5.0;\n\nimport \"../token/ERC20/IERC20.sol\";\nimport \"../crowdsale/distribution/RefundableCrowdsale.sol\";\n\ncontract RefundableCrowdsaleImpl is RefundableCrowdsale {\n    constructor (\n        uint256 openingTime,\n        uint256 closingTime,\n        uint256 rate,\n        address payable wallet,\n        IERC20 token,\n        uint256 goal\n    )\n        public\n        Crowdsale(rate, wallet, token)\n        TimedCrowdsale(openingTime, closingTime)\n        RefundableCrowdsale(goal)\n    {\n        // solhint-disable-previous-line no-empty-blocks\n    }\n}\n",
  "sourcePath": "C:/Users/Gayardo/Desktop/monnaieWork/Ux_Ethereum/contracts/library/mocks/RefundableCrowdsaleImpl.sol",
  "compiler": {
    "name": "solc",
    "version": "0.5.12+commit.7709ece9.Emscripten.clang"
  },
  "schemaVersion": "3.0.19",
  "updatedAt": "2019-12-04T11:28:58.933Z",
  "devdoc": {
    "methods": {
      "buyTokens(address)": {
        "details": "low level token purchase ***DO NOT OVERRIDE*** This function has a non-reentrancy guard, so it shouldn't be called by another `nonReentrant` function.",
        "params": {
          "beneficiary": "Recipient of the token purchase"
        }
      },
      "claimRefund(address)": {
        "details": "Investors can claim refunds here if crowdsale is unsuccessful.",
        "params": {
          "refundee": "Whose refund will be claimed."
        }
      },
      "closingTime()": {
        "return": "the crowdsale closing time."
      },
      "finalize()": {
        "details": "Must be called after crowdsale ends, to do some extra finalization work. Calls the contract's finalization function."
      },
      "finalized()": {
        "return": "true if the crowdsale is finalized, false otherwise."
      },
      "goal()": {
        "return": "minimum amount of funds to be raised in wei."
      },
      "goalReached()": {
        "details": "Checks whether funding goal was reached.",
        "return": "Whether funding goal was reached"
      },
      "hasClosed()": {
        "details": "Checks whether the period in which the crowdsale is open has already elapsed.",
        "return": "Whether crowdsale period has elapsed"
      },
      "isOpen()": {
        "return": "true if the crowdsale is open, false otherwise."
      },
      "openingTime()": {
        "return": "the crowdsale opening time."
      },
      "rate()": {
        "return": "the number of token units a buyer gets per wei."
      },
      "token()": {
        "return": "the token being sold."
      },
      "wallet()": {
        "return": "the address where funds are collected."
      },
      "weiRaised()": {
        "return": "the amount of wei raised."
      }
    }
  },
  "userdoc": {
    "methods": {}
  }
}