{
  "contractName": "SampleCrowdsale",
  "abi": [
    {
      "inputs": [
        {
          "internalType": "uint256",
          "name": "openingTime",
          "type": "uint256"
        },
        {
          "internalType": "uint256",
          "name": "closingTime",
          "type": "uint256"
        },
        {
          "internalType": "uint256",
          "name": "rate",
          "type": "uint256"
        },
        {
          "internalType": "address payable",
          "name": "wallet",
          "type": "address"
        },
        {
          "internalType": "uint256",
          "name": "cap",
          "type": "uint256"
        },
        {
          "internalType": "contract ERC20Mintable",
          "name": "token",
          "type": "address"
        },
        {
          "internalType": "uint256",
          "name": "goal",
          "type": "uint256"
        }
      ],
      "payable": false,
      "stateMutability": "nonpayable",
      "type": "constructor"
    },
    {
      "anonymous": false,
      "inputs": [],
      "name": "CrowdsaleFinalized",
      "type": "event"
    },
    {
      "anonymous": false,
      "inputs": [
        {
          "indexed": false,
          "internalType": "uint256",
          "name": "prevClosingTime",
          "type": "uint256"
        },
        {
          "indexed": false,
          "internalType": "uint256",
          "name": "newClosingTime",
          "type": "uint256"
        }
      ],
      "name": "TimedCrowdsaleExtended",
      "type": "event"
    },
    {
      "anonymous": false,
      "inputs": [
        {
          "indexed": true,
          "internalType": "address",
          "name": "purchaser",
          "type": "address"
        },
        {
          "indexed": true,
          "internalType": "address",
          "name": "beneficiary",
          "type": "address"
        },
        {
          "indexed": false,
          "internalType": "uint256",
          "name": "value",
          "type": "uint256"
        },
        {
          "indexed": false,
          "internalType": "uint256",
          "name": "amount",
          "type": "uint256"
        }
      ],
      "name": "TokensPurchased",
      "type": "event"
    },
    {
      "payable": true,
      "stateMutability": "payable",
      "type": "fallback"
    },
    {
      "constant": false,
      "inputs": [
        {
          "internalType": "address",
          "name": "beneficiary",
          "type": "address"
        }
      ],
      "name": "buyTokens",
      "outputs": [],
      "payable": true,
      "stateMutability": "payable",
      "type": "function"
    },
    {
      "constant": true,
      "inputs": [],
      "name": "cap",
      "outputs": [
        {
          "internalType": "uint256",
          "name": "",
          "type": "uint256"
        }
      ],
      "payable": false,
      "stateMutability": "view",
      "type": "function"
    },
    {
      "constant": true,
      "inputs": [],
      "name": "capReached",
      "outputs": [
        {
          "internalType": "bool",
          "name": "",
          "type": "bool"
        }
      ],
      "payable": false,
      "stateMutability": "view",
      "type": "function"
    },
    {
      "constant": false,
      "inputs": [
        {
          "internalType": "address payable",
          "name": "refundee",
          "type": "address"
        }
      ],
      "name": "claimRefund",
      "outputs": [],
      "payable": false,
      "stateMutability": "nonpayable",
      "type": "function"
    },
    {
      "constant": true,
      "inputs": [],
      "name": "closingTime",
      "outputs": [
        {
          "internalType": "uint256",
          "name": "",
          "type": "uint256"
        }
      ],
      "payable": false,
      "stateMutability": "view",
      "type": "function"
    },
    {
      "constant": false,
      "inputs": [],
      "name": "finalize",
      "outputs": [],
      "payable": false,
      "stateMutability": "nonpayable",
      "type": "function"
    },
    {
      "constant": true,
      "inputs": [],
      "name": "finalized",
      "outputs": [
        {
          "internalType": "bool",
          "name": "",
          "type": "bool"
        }
      ],
      "payable": false,
      "stateMutability": "view",
      "type": "function"
    },
    {
      "constant": true,
      "inputs": [],
      "name": "goal",
      "outputs": [
        {
          "internalType": "uint256",
          "name": "",
          "type": "uint256"
        }
      ],
      "payable": false,
      "stateMutability": "view",
      "type": "function"
    },
    {
      "constant": true,
      "inputs": [],
      "name": "goalReached",
      "outputs": [
        {
          "internalType": "bool",
          "name": "",
          "type": "bool"
        }
      ],
      "payable": false,
      "stateMutability": "view",
      "type": "function"
    },
    {
      "constant": true,
      "inputs": [],
      "name": "hasClosed",
      "outputs": [
        {
          "internalType": "bool",
          "name": "",
          "type": "bool"
        }
      ],
      "payable": false,
      "stateMutability": "view",
      "type": "function"
    },
    {
      "constant": true,
      "inputs": [],
      "name": "isOpen",
      "outputs": [
        {
          "internalType": "bool",
          "name": "",
          "type": "bool"
        }
      ],
      "payable": false,
      "stateMutability": "view",
      "type": "function"
    },
    {
      "constant": true,
      "inputs": [],
      "name": "openingTime",
      "outputs": [
        {
          "internalType": "uint256",
          "name": "",
          "type": "uint256"
        }
      ],
      "payable": false,
      "stateMutability": "view",
      "type": "function"
    },
    {
      "constant": true,
      "inputs": [],
      "name": "rate",
      "outputs": [
        {
          "internalType": "uint256",
          "name": "",
          "type": "uint256"
        }
      ],
      "payable": false,
      "stateMutability": "view",
      "type": "function"
    },
    {
      "constant": true,
      "inputs": [],
      "name": "token",
      "outputs": [
        {
          "internalType": "contract IERC20",
          "name": "",
          "type": "address"
        }
      ],
      "payable": false,
      "stateMutability": "view",
      "type": "function"
    },
    {
      "constant": true,
      "inputs": [],
      "name": "wallet",
      "outputs": [
        {
          "internalType": "address payable",
          "name": "",
          "type": "address"
        }
      ],
      "payable": false,
      "stateMutability": "view",
      "type": "function"
    },
    {
      "constant": true,
      "inputs": [],
      "name": "weiRaised",
      "outputs": [
        {
          "internalType": "uint256",
          "name": "",
          "type": "uint256"
        }
      ],
      "payable": false,
      "stateMutability": "view",
      "type": "function"
    }
  ],
  "bytecode": "0x60806040523480156200001157600080fd5b5060405162002eab38038062002eab833981810160405260e08110156200003757600080fd5b81019080805190602001909291908051906020019092919080519060200190929190805190602001909291908051906020019092919080519060200190929190805190602001909291905050508087878588888760016000806101000a81548160ff021916908315150217905550600083116200011c576040517f08c379a00000000000000000000000000000000000000000000000000000000081526004018080602001828103825260148152602001807f43726f776473616c653a2072617465206973203000000000000000000000000081525060200191505060405180910390fd5b600073ffffffffffffffffffffffffffffffffffffffff168273ffffffffffffffffffffffffffffffffffffffff161415620001a4576040517f08c379a000000000000000000000000000000000000000000000000000000000815260040180806020018281038252602581526020018062002e866025913960400191505060405180910390fd5b600073ffffffffffffffffffffffffffffffffffffffff168173ffffffffffffffffffffffffffffffffffffffff1614156200022c576040517f08c379a000000000000000000000000000000000000000000000000000000000815260040180806020018281038252602481526020018062002e396024913960400191505060405180910390fd5b8260028190555081600160006101000a81548173ffffffffffffffffffffffffffffffffffffffff021916908373ffffffffffffffffffffffffffffffffffffffff16021790555080600060016101000a81548173ffffffffffffffffffffffffffffffffffffffff021916908373ffffffffffffffffffffffffffffffffffffffff160217905550505050600081116200032f576040517f08c379a00000000000000000000000000000000000000000000000000000000081526004018080602001828103825260198152602001807f43617070656443726f776473616c653a2063617020697320300000000000000081525060200191505060405180910390fd5b80600481905550504282101562000392576040517f08c379a000000000000000000000000000000000000000000000000000000000815260040180806020018281038252603381526020018062002dcf6033913960400191505060405180910390fd5b818111620003ec576040517f08c379a000000000000000000000000000000000000000000000000000000000815260040180806020018281038252603781526020018062002e026037913960400191505060405180910390fd5b816005819055508060068190555050506000600760006101000a81548160ff021916908315150217905550600081116200048e576040517f08c379a000000000000000000000000000000000000000000000000000000000815260040180806020018281038252601e8152602001807f526566756e6461626c6543726f776473616c653a20676f616c2069732030000081525060200191505060405180910390fd5b6200049e620005b060201b60201c565b604051620004ac90620005da565b808273ffffffffffffffffffffffffffffffffffffffff1673ffffffffffffffffffffffffffffffffffffffff168152602001915050604051809103906000f080158015620004ff573d6000803e3d6000fd5b50600960006101000a81548173ffffffffffffffffffffffffffffffffffffffff021916908373ffffffffffffffffffffffffffffffffffffffff160217905550806008819055505082811115620005a3576040517f08c379a000000000000000000000000000000000000000000000000000000000815260040180806020018281038252602981526020018062002e5d6029913960400191505060405180910390fd5b50505050505050620005e8565b6000600160009054906101000a900473ffffffffffffffffffffffffffffffffffffffff16905090565b611660806200176f83390190565b61117780620005f86000396000f3fe6080604052600436106100f35760003560e01c80634f9359451161008a578063b7a8807c11610059578063b7a8807c14610335578063bffa55d514610360578063ec8ac4d8146103b1578063fc0c546a146103f5576100f3565b80634f93594514610251578063521eb273146102805780637d3d6522146102d7578063b3f05b9714610306576100f3565b80634042b66f116100c65780634042b66f146101b557806347535d7b146101e05780634b6753bc1461020f5780634bb278f31461023a576100f3565b80631515bc2b146101055780632c4e722e14610134578063355274ea1461015f578063401938831461018a575b6101036100fe61044c565b610454565b005b34801561011157600080fd5b5061011a6105df565b604051808215151515815260200191505060405180910390f35b34801561014057600080fd5b506101496105eb565b6040518082815260200191505060405180910390f35b34801561016b57600080fd5b506101746105f5565b6040518082815260200191505060405180910390f35b34801561019657600080fd5b5061019f6105ff565b6040518082815260200191505060405180910390f35b3480156101c157600080fd5b506101ca610609565b6040518082815260200191505060405180910390f35b3480156101ec57600080fd5b506101f5610613565b604051808215151515815260200191505060405180910390f35b34801561021b57600080fd5b5061022461062e565b6040518082815260200191505060405180910390f35b34801561024657600080fd5b5061024f610638565b005b34801561025d57600080fd5b50610266610769565b604051808215151515815260200191505060405180910390f35b34801561028c57600080fd5b5061029561077d565b604051808273ffffffffffffffffffffffffffffffffffffffff1673ffffffffffffffffffffffffffffffffffffffff16815260200191505060405180910390f35b3480156102e357600080fd5b506102ec6107a7565b604051808215151515815260200191505060405180910390f35b34801561031257600080fd5b5061031b6107bb565b604051808215151515815260200191505060405180910390f35b34801561034157600080fd5b5061034a6107d2565b6040518082815260200191505060405180910390f35b34801561036c57600080fd5b506103af6004803603602081101561038357600080fd5b81019080803573ffffffffffffffffffffffffffffffffffffffff1690602001909291905050506107dc565b005b6103f3600480360360208110156103c757600080fd5b81019080803573ffffffffffffffffffffffffffffffffffffffff169060200190929190505050610454565b005b34801561040157600080fd5b5061040a610953565b604051808273ffffffffffffffffffffffffffffffffffffffff1673ffffffffffffffffffffffffffffffffffffffff16815260200191505060405180910390f35b600033905090565b6000809054906101000a900460ff166104d5576040517f08c379a000000000000000000000000000000000000000000000000000000000815260040180806020018281038252601f8152602001807f5265656e7472616e637947756172643a207265656e7472616e742063616c6c0081525060200191505060405180910390fd5b60008060006101000a81548160ff02191690831515021790555060003490506104fe828261097c565b600061050982610a04565b905061052082600354610a2290919063ffffffff16565b6003819055506105308382610aaa565b8273ffffffffffffffffffffffffffffffffffffffff1661054f61044c565b73ffffffffffffffffffffffffffffffffffffffff167f6faf93231a456e552dbc9961f58d9713ee4f2e69d15f1975b050ef0911053a7b8484604051808381526020018281526020019250505060405180910390a36105ae8383610ab8565b6105b6610abc565b6105c08383610b7f565b505060016000806101000a81548160ff02191690831515021790555050565b60006006544211905090565b6000600254905090565b6000600454905090565b6000600854905090565b6000600354905090565b6000600554421015801561062957506006544211155b905090565b6000600654905090565b600760009054906101000a900460ff161561069e576040517f08c379a00000000000000000000000000000000000000000000000000000000081526004018080602001828103825260278152602001806110af6027913960400191505060405180910390fd5b6106a66105df565b610718576040517f08c379a00000000000000000000000000000000000000000000000000000000081526004018080602001828103825260208152602001807f46696e616c697a61626c6543726f776473616c653a206e6f7420636c6f73656481525060200191505060405180910390fd5b6001600760006101000a81548160ff02191690831515021790555061073b610b83565b7f9270cc390c096600a1c17c44345a1ba689fafd99d97487b10cfccf86cf73183660405160405180910390a1565b6000600454610776610609565b1015905090565b6000600160009054906101000a900473ffffffffffffffffffffffffffffffffffffffff16905090565b60006008546107b4610609565b1015905090565b6000600760009054906101000a900460ff16905090565b6000600554905090565b6107e46107bb565b610839576040517f08c379a00000000000000000000000000000000000000000000000000000000081526004018080602001828103825260228152602001806111216022913960400191505060405180910390fd5b6108416107a7565b15610897576040517f08c379a00000000000000000000000000000000000000000000000000000000081526004018080602001828103825260218152602001806110d66021913960400191505060405180910390fd5b600960009054906101000a900473ffffffffffffffffffffffffffffffffffffffff1673ffffffffffffffffffffffffffffffffffffffff166351cff8d9826040518263ffffffff1660e01b8152600401808273ffffffffffffffffffffffffffffffffffffffff1673ffffffffffffffffffffffffffffffffffffffff168152602001915050600060405180830381600087803b15801561093857600080fd5b505af115801561094c573d6000803e3d6000fd5b5050505050565b60008060019054906101000a900473ffffffffffffffffffffffffffffffffffffffff16905090565b610984610613565b6109f6576040517f08c379a00000000000000000000000000000000000000000000000000000000081526004018080602001828103825260188152602001807f54696d656443726f776473616c653a206e6f74206f70656e000000000000000081525060200191505060405180910390fd5b610a008282610d26565b5050565b6000610a1b60025483610dc590919063ffffffff16565b9050919050565b600080828401905083811015610aa0576040517f08c379a000000000000000000000000000000000000000000000000000000000815260040180806020018281038252601b8152602001807f536166654d6174683a206164646974696f6e206f766572666c6f77000000000081525060200191505060405180910390fd5b8091505092915050565b610ab48282610e4b565b5050565b5050565b600960009054906101000a900473ffffffffffffffffffffffffffffffffffffffff1673ffffffffffffffffffffffffffffffffffffffff1663f340fa0134610b0361044c565b6040518363ffffffff1660e01b8152600401808273ffffffffffffffffffffffffffffffffffffffff1673ffffffffffffffffffffffffffffffffffffffff1681526020019150506000604051808303818588803b158015610b6457600080fd5b505af1158015610b78573d6000803e3d6000fd5b5050505050565b5050565b610b8b6107a7565b15610c9957600960009054906101000a900473ffffffffffffffffffffffffffffffffffffffff1673ffffffffffffffffffffffffffffffffffffffff166343d726d66040518163ffffffff1660e01b8152600401600060405180830381600087803b158015610bfa57600080fd5b505af1158015610c0e573d6000803e3d6000fd5b50505050600960009054906101000a900473ffffffffffffffffffffffffffffffffffffffff1673ffffffffffffffffffffffffffffffffffffffff16639af6549a6040518163ffffffff1660e01b8152600401600060405180830381600087803b158015610c7c57600080fd5b505af1158015610c90573d6000803e3d6000fd5b50505050610d1c565b600960009054906101000a900473ffffffffffffffffffffffffffffffffffffffff1673ffffffffffffffffffffffffffffffffffffffff16638c52dc416040518163ffffffff1660e01b8152600401600060405180830381600087803b158015610d0357600080fd5b505af1158015610d17573d6000803e3d6000fd5b505050505b610d24610f8a565b565b610d308282610f8c565b600454610d4d82610d3f610609565b610a2290919063ffffffff16565b1115610dc1576040517f08c379a000000000000000000000000000000000000000000000000000000000815260040180806020018281038252601d8152602001807f43617070656443726f776473616c653a2063617020657863656564656400000081525060200191505060405180910390fd5b5050565b600080831415610dd85760009050610e45565b6000828402905082848281610de957fe5b0414610e40576040517f08c379a000000000000000000000000000000000000000000000000000000000815260040180806020018281038252602181526020018061108e6021913960400191505060405180910390fd5b809150505b92915050565b610e53610953565b73ffffffffffffffffffffffffffffffffffffffff166340c10f1983836040518363ffffffff1660e01b8152600401808373ffffffffffffffffffffffffffffffffffffffff1673ffffffffffffffffffffffffffffffffffffffff16815260200182815260200192505050602060405180830381600087803b158015610ed957600080fd5b505af1158015610eed573d6000803e3d6000fd5b505050506040513d6020811015610f0357600080fd5b8101908080519060200190929190505050610f86576040517f08c379a000000000000000000000000000000000000000000000000000000000815260040180806020018281038252601f8152602001807f4d696e74656443726f776473616c653a206d696e74696e67206661696c65640081525060200191505060405180910390fd5b5050565b565b600073ffffffffffffffffffffffffffffffffffffffff168273ffffffffffffffffffffffffffffffffffffffff161415611012576040517f08c379a000000000000000000000000000000000000000000000000000000000815260040180806020018281038252602a8152602001806110f7602a913960400191505060405180910390fd5b6000811415611089576040517f08c379a00000000000000000000000000000000000000000000000000000000081526004018080602001828103825260198152602001807f43726f776473616c653a20776569416d6f756e7420697320300000000000000081525060200191505060405180910390fd5b505056fe536166654d6174683a206d756c7469706c69636174696f6e206f766572666c6f7746696e616c697a61626c6543726f776473616c653a20616c72656164792066696e616c697a6564526566756e6461626c6543726f776473616c653a20676f616c207265616368656443726f776473616c653a2062656e656669636961727920697320746865207a65726f2061646472657373526566756e6461626c6543726f776473616c653a206e6f742066696e616c697a6564a265627a7a7231582075589010e7b104686ceff05d5d57a748321258191b3e61d91df9786fe4ca742a64736f6c634300050c0032608060405234801561001057600080fd5b506040516116603803806116608339818101604052602081101561003357600080fd5b810190808051906020019092919050505060006100546101eb60201b60201c565b9050806000806101000a81548173ffffffffffffffffffffffffffffffffffffffff021916908373ffffffffffffffffffffffffffffffffffffffff1602179055507f4101e71e974f68df5e9730cc223280b41654676bbb052cdcc735c3337e64d2d981604051808273ffffffffffffffffffffffffffffffffffffffff1673ffffffffffffffffffffffffffffffffffffffff16815260200191505060405180910390a150600073ffffffffffffffffffffffffffffffffffffffff168173ffffffffffffffffffffffffffffffffffffffff161415610180576040517f08c379a000000000000000000000000000000000000000000000000000000000815260040180806020018281038252602d815260200180611633602d913960400191505060405180910390fd5b80600260016101000a81548173ffffffffffffffffffffffffffffffffffffffff021916908373ffffffffffffffffffffffffffffffffffffffff1602179055506000600260006101000a81548160ff021916908360028111156101e057fe5b0217905550506101f3565b600033905090565b611431806102026000396000f3fe6080604052600436106100a75760003560e01c80638c52dc41116100645780638c52dc41146102765780639af6549a1461028d578063c19d93fb146102a4578063c6dbdf61146102dd578063e3a9db1a14610334578063f340fa0114610399576100a7565b80632348238c146100ac57806338af3eed146100fd57806343d726d61461015457806351cff8d91461016b5780636809691a146101bc578063685ca1941461020d575b600080fd5b3480156100b857600080fd5b506100fb600480360360208110156100cf57600080fd5b81019080803573ffffffffffffffffffffffffffffffffffffffff1690602001909291905050506103dd565b005b34801561010957600080fd5b506101126105b5565b604051808273ffffffffffffffffffffffffffffffffffffffff1673ffffffffffffffffffffffffffffffffffffffff16815260200191505060405180910390f35b34801561016057600080fd5b506101696105df565b005b34801561017757600080fd5b506101ba6004803603602081101561018e57600080fd5b81019080803573ffffffffffffffffffffffffffffffffffffffff16906020019092919050505061075a565b005b3480156101c857600080fd5b5061020b600480360360208110156101df57600080fd5b81019080803573ffffffffffffffffffffffffffffffffffffffff1690602001909291905050506107c4565b005b34801561021957600080fd5b5061025c6004803603602081101561023057600080fd5b81019080803573ffffffffffffffffffffffffffffffffffffffff169060200190929190505050610974565b604051808215151515815260200191505060405180910390f35b34801561028257600080fd5b5061028b6109a6565b005b34801561029957600080fd5b506102a2610b22565b005b3480156102b057600080fd5b506102b9610c21565b604051808260028111156102c957fe5b60ff16815260200191505060405180910390f35b3480156102e957600080fd5b506102f2610c38565b604051808273ffffffffffffffffffffffffffffffffffffffff1673ffffffffffffffffffffffffffffffffffffffff16815260200191505060405180910390f35b34801561034057600080fd5b506103836004803603602081101561035757600080fd5b81019080803573ffffffffffffffffffffffffffffffffffffffff169060200190929190505050610c61565b6040518082815260200191505060405180910390f35b6103db600480360360208110156103af57600080fd5b81019080803573ffffffffffffffffffffffffffffffffffffffff169060200190929190505050610caa565b005b6000809054906101000a900473ffffffffffffffffffffffffffffffffffffffff1673ffffffffffffffffffffffffffffffffffffffff1661041d610d34565b73ffffffffffffffffffffffffffffffffffffffff1614610489576040517f08c379a000000000000000000000000000000000000000000000000000000000815260040180806020018281038252602c81526020018061139f602c913960400191505060405180910390fd5b600073ffffffffffffffffffffffffffffffffffffffff168173ffffffffffffffffffffffffffffffffffffffff16141561050f576040517f08c379a000000000000000000000000000000000000000000000000000000000815260040180806020018281038252602a815260200180611375602a913960400191505060405180910390fd5b806000806101000a81548173ffffffffffffffffffffffffffffffffffffffff021916908373ffffffffffffffffffffffffffffffffffffffff1602179055507f4101e71e974f68df5e9730cc223280b41654676bbb052cdcc735c3337e64d2d981604051808273ffffffffffffffffffffffffffffffffffffffff1673ffffffffffffffffffffffffffffffffffffffff16815260200191505060405180910390a150565b6000600260019054906101000a900473ffffffffffffffffffffffffffffffffffffffff16905090565b6000809054906101000a900473ffffffffffffffffffffffffffffffffffffffff1673ffffffffffffffffffffffffffffffffffffffff1661061f610d34565b73ffffffffffffffffffffffffffffffffffffffff161461068b576040517f08c379a000000000000000000000000000000000000000000000000000000000815260040180806020018281038252602c81526020018061139f602c913960400191505060405180910390fd5b6000600281111561069857fe5b600260009054906101000a900460ff1660028111156106b357fe5b14610709576040517f08c379a000000000000000000000000000000000000000000000000000000000815260040180806020018281038252602981526020018061134c6029913960400191505060405180910390fd5b60028060006101000a81548160ff0219169083600281111561072757fe5b02179055507f088672c3a6e342f7cd94a65ba63b79df24a8973927b4d05d803c44bbf787d12f60405160405180910390a1565b61076381610974565b6107b8576040517f08c379a00000000000000000000000000000000000000000000000000000000081526004018080602001828103825260338152602001806113196033913960400191505060405180910390fd5b6107c181610d3c565b50565b6000809054906101000a900473ffffffffffffffffffffffffffffffffffffffff1673ffffffffffffffffffffffffffffffffffffffff16610804610d34565b73ffffffffffffffffffffffffffffffffffffffff1614610870576040517f08c379a000000000000000000000000000000000000000000000000000000000815260040180806020018281038252602c81526020018061139f602c913960400191505060405180910390fd5b6000600160008373ffffffffffffffffffffffffffffffffffffffff1673ffffffffffffffffffffffffffffffffffffffff1681526020019081526020016000205490506000600160008473ffffffffffffffffffffffffffffffffffffffff1673ffffffffffffffffffffffffffffffffffffffff16815260200190815260200160002081905550610922818373ffffffffffffffffffffffffffffffffffffffff16610f0a90919063ffffffff16565b8173ffffffffffffffffffffffffffffffffffffffff167f7084f5476618d8e60b11ef0d7d3f06914655adb8793e28ff7f018d4c76d505d5826040518082815260200191505060405180910390a25050565b60006001600281111561098357fe5b600260009054906101000a900460ff16600281111561099e57fe5b149050919050565b6000809054906101000a900473ffffffffffffffffffffffffffffffffffffffff1673ffffffffffffffffffffffffffffffffffffffff166109e6610d34565b73ffffffffffffffffffffffffffffffffffffffff1614610a52576040517f08c379a000000000000000000000000000000000000000000000000000000000815260040180806020018281038252602c81526020018061139f602c913960400191505060405180910390fd5b60006002811115610a5f57fe5b600260009054906101000a900460ff166002811115610a7a57fe5b14610ad0576040517f08c379a00000000000000000000000000000000000000000000000000000000081526004018080602001828103825260328152602001806113cb6032913960400191505060405180910390fd5b6001600260006101000a81548160ff02191690836002811115610aef57fe5b02179055507f599d8e5a83cffb867d051598c4d70e805d59802d8081c1c7d6dffc5b6aca2b8960405160405180910390a1565b600280811115610b2e57fe5b600260009054906101000a900460ff166002811115610b4957fe5b14610b9f576040517f08c379a000000000000000000000000000000000000000000000000000000000815260040180806020018281038252603881526020018061127c6038913960400191505060405180910390fd5b600260019054906101000a900473ffffffffffffffffffffffffffffffffffffffff1673ffffffffffffffffffffffffffffffffffffffff166108fc3073ffffffffffffffffffffffffffffffffffffffff16319081150290604051600060405180830381858888f19350505050158015610c1e573d6000803e3d6000fd5b50565b6000600260009054906101000a900460ff16905090565b60008060009054906101000a900473ffffffffffffffffffffffffffffffffffffffff16905090565b6000600160008373ffffffffffffffffffffffffffffffffffffffff1673ffffffffffffffffffffffffffffffffffffffff168152602001908152602001600020549050919050565b60006002811115610cb757fe5b600260009054906101000a900460ff166002811115610cd257fe5b14610d28576040517f08c379a000000000000000000000000000000000000000000000000000000000815260040180806020018281038252602b8152602001806112ee602b913960400191505060405180910390fd5b610d318161105b565b50565b600033905090565b6000809054906101000a900473ffffffffffffffffffffffffffffffffffffffff1673ffffffffffffffffffffffffffffffffffffffff16610d7c610d34565b73ffffffffffffffffffffffffffffffffffffffff1614610de8576040517f08c379a000000000000000000000000000000000000000000000000000000000815260040180806020018281038252602c81526020018061139f602c913960400191505060405180910390fd5b6000600160008373ffffffffffffffffffffffffffffffffffffffff1673ffffffffffffffffffffffffffffffffffffffff1681526020019081526020016000205490506000600160008473ffffffffffffffffffffffffffffffffffffffff1673ffffffffffffffffffffffffffffffffffffffff168152602001908152602001600020819055508173ffffffffffffffffffffffffffffffffffffffff166108fc829081150290604051600060405180830381858888f19350505050158015610eb7573d6000803e3d6000fd5b508173ffffffffffffffffffffffffffffffffffffffff167f7084f5476618d8e60b11ef0d7d3f06914655adb8793e28ff7f018d4c76d505d5826040518082815260200191505060405180910390a25050565b803073ffffffffffffffffffffffffffffffffffffffff16311015610f97576040517f08c379a000000000000000000000000000000000000000000000000000000000815260040180806020018281038252601d8152602001807f416464726573733a20696e73756666696369656e742062616c616e636500000081525060200191505060405180910390fd5b60008273ffffffffffffffffffffffffffffffffffffffff168260405180600001905060006040518083038185875af1925050503d8060008114610ff7576040519150601f19603f3d011682016040523d82523d6000602084013e610ffc565b606091505b5050905080611056576040517f08c379a000000000000000000000000000000000000000000000000000000000815260040180806020018281038252603a8152602001806112b4603a913960400191505060405180910390fd5b505050565b6000809054906101000a900473ffffffffffffffffffffffffffffffffffffffff1673ffffffffffffffffffffffffffffffffffffffff1661109b610d34565b73ffffffffffffffffffffffffffffffffffffffff1614611107576040517f08c379a000000000000000000000000000000000000000000000000000000000815260040180806020018281038252602c81526020018061139f602c913960400191505060405180910390fd5b600034905061115e81600160008573ffffffffffffffffffffffffffffffffffffffff1673ffffffffffffffffffffffffffffffffffffffff168152602001908152602001600020546111f390919063ffffffff16565b600160008473ffffffffffffffffffffffffffffffffffffffff1673ffffffffffffffffffffffffffffffffffffffff168152602001908152602001600020819055508173ffffffffffffffffffffffffffffffffffffffff167f2da466a7b24304f47e87fa2e1e5a81b9831ce54fec19055ce277ca2f39ba42c4826040518082815260200191505060405180910390a25050565b600080828401905083811015611271576040517f08c379a000000000000000000000000000000000000000000000000000000000815260040180806020018281038252601b8152602001807f536166654d6174683a206164646974696f6e206f766572666c6f77000000000081525060200191505060405180910390fd5b809150509291505056fe526566756e64457363726f773a2062656e65666963696172792063616e206f6e6c79207769746864726177207768696c6520636c6f736564416464726573733a20756e61626c6520746f2073656e642076616c75652c20726563697069656e74206d61792068617665207265766572746564526566756e64457363726f773a2063616e206f6e6c79206465706f736974207768696c6520616374697665436f6e646974696f6e616c457363726f773a207061796565206973206e6f7420616c6c6f77656420746f207769746864726177526566756e64457363726f773a2063616e206f6e6c7920636c6f7365207768696c65206163746976655365636f6e646172793a206e6577207072696d61727920697320746865207a65726f20616464726573735365636f6e646172793a2063616c6c6572206973206e6f7420746865207072696d617279206163636f756e74526566756e64457363726f773a2063616e206f6e6c7920656e61626c6520726566756e6473207768696c6520616374697665a265627a7a7231582033d5fb4cdaf0c12f9e4ae981ab1162171032759b5bb068bbb11039d312db520164736f6c634300050c0032526566756e64457363726f773a2062656e656669636961727920697320746865207a65726f206164647265737354696d656443726f776473616c653a206f70656e696e672074696d65206973206265666f72652063757272656e742074696d6554696d656443726f776473616c653a206f70656e696e672074696d65206973206e6f74206265666f726520636c6f73696e672074696d6543726f776473616c653a20746f6b656e20697320746865207a65726f206164647265737353616d706c6543726f776453616c653a20676f616c2069732067726561746572207468616e2063617043726f776473616c653a2077616c6c657420697320746865207a65726f2061646472657373",
  "source": "pragma solidity ^0.5.0;\n\nimport \"../crowdsale/validation/CappedCrowdsale.sol\";\nimport \"../crowdsale/distribution/RefundableCrowdsale.sol\";\nimport \"../crowdsale/emission/MintedCrowdsale.sol\";\nimport \"../token/ERC20/ERC20Mintable.sol\";\nimport \"../token/ERC20/ERC20Detailed.sol\";\n\n/**\n * @title SampleCrowdsaleToken\n * @dev Very simple ERC20 Token that can be minted.\n * It is meant to be used in a crowdsale contract.\n */\ncontract SampleCrowdsaleToken is ERC20Mintable, ERC20Detailed {\n    constructor () public ERC20Detailed(\"Sample Crowdsale Token\", \"SCT\", 18) {\n        // solhint-disable-previous-line no-empty-blocks\n    }\n}\n\n/**\n * @title SampleCrowdsale\n * @dev This is an example of a fully fledged crowdsale.\n * The way to add new features to a base crowdsale is by multiple inheritance.\n * In this example we are providing following extensions:\n * CappedCrowdsale - sets a max boundary for raised funds\n * RefundableCrowdsale - set a min goal to be reached and returns funds if it's not met\n * MintedCrowdsale - assumes the token can be minted by the crowdsale, which does so\n * when receiving purchases.\n *\n * After adding multiple features it's good practice to run integration tests\n * to ensure that subcontracts works together as intended.\n */\ncontract SampleCrowdsale is CappedCrowdsale, RefundableCrowdsale, MintedCrowdsale {\n    constructor (\n        uint256 openingTime,\n        uint256 closingTime,\n        uint256 rate,\n        address payable wallet,\n        uint256 cap,\n        ERC20Mintable token,\n        uint256 goal\n    )\n        public\n        Crowdsale(rate, wallet, token)\n        CappedCrowdsale(cap)\n        TimedCrowdsale(openingTime, closingTime)\n        RefundableCrowdsale(goal)\n    {\n        //As goal needs to be met for a successful crowdsale\n        //the value needs to less or equal than a cap which is limit for accepted funds\n        require(goal <= cap, \"SampleCrowdSale: goal is greater than cap\");\n    }\n}\n",
  "sourcePath": "C:/Users/Gayardo/Desktop/monnaieWork/Ux_Ethereum/contracts/library/examples/SampleCrowdsale.sol",
  "compiler": {
    "name": "solc",
    "version": "0.5.12+commit.7709ece9.Emscripten.clang"
  },
  "schemaVersion": "3.0.19",
  "updatedAt": "2019-12-04T11:28:58.562Z",
  "devdoc": {
    "details": "This is an example of a fully fledged crowdsale. The way to add new features to a base crowdsale is by multiple inheritance. In this example we are providing following extensions: CappedCrowdsale - sets a max boundary for raised funds RefundableCrowdsale - set a min goal to be reached and returns funds if it's not met MintedCrowdsale - assumes the token can be minted by the crowdsale, which does so when receiving purchases. * After adding multiple features it's good practice to run integration tests to ensure that subcontracts works together as intended.",
    "methods": {
      "buyTokens(address)": {
        "details": "low level token purchase ***DO NOT OVERRIDE*** This function has a non-reentrancy guard, so it shouldn't be called by another `nonReentrant` function.",
        "params": {
          "beneficiary": "Recipient of the token purchase"
        }
      },
      "cap()": {
        "return": "the cap of the crowdsale."
      },
      "capReached()": {
        "details": "Checks whether the cap has been reached.",
        "return": "Whether the cap was reached"
      },
      "claimRefund(address)": {
        "details": "Investors can claim refunds here if crowdsale is unsuccessful.",
        "params": {
          "refundee": "Whose refund will be claimed."
        }
      },
      "closingTime()": {
        "return": "the crowdsale closing time."
      },
      "finalize()": {
        "details": "Must be called after crowdsale ends, to do some extra finalization work. Calls the contract's finalization function."
      },
      "finalized()": {
        "return": "true if the crowdsale is finalized, false otherwise."
      },
      "goal()": {
        "return": "minimum amount of funds to be raised in wei."
      },
      "goalReached()": {
        "details": "Checks whether funding goal was reached.",
        "return": "Whether funding goal was reached"
      },
      "hasClosed()": {
        "details": "Checks whether the period in which the crowdsale is open has already elapsed.",
        "return": "Whether crowdsale period has elapsed"
      },
      "isOpen()": {
        "return": "true if the crowdsale is open, false otherwise."
      },
      "openingTime()": {
        "return": "the crowdsale opening time."
      },
      "rate()": {
        "return": "the number of token units a buyer gets per wei."
      },
      "token()": {
        "return": "the token being sold."
      },
      "wallet()": {
        "return": "the address where funds are collected."
      },
      "weiRaised()": {
        "return": "the amount of wei raised."
      }
    },
    "title": "SampleCrowdsale"
  },
  "userdoc": {
    "methods": {}
  }
}