{
  "contractName": "SecondaryMock",
  "abi": [
    {
      "anonymous": false,
      "inputs": [
        {
          "indexed": false,
          "internalType": "address",
          "name": "recipient",
          "type": "address"
        }
      ],
      "name": "PrimaryTransferred",
      "type": "event"
    },
    {
      "constant": true,
      "inputs": [],
      "name": "primary",
      "outputs": [
        {
          "internalType": "address",
          "name": "",
          "type": "address"
        }
      ],
      "payable": false,
      "stateMutability": "view",
      "type": "function"
    },
    {
      "constant": false,
      "inputs": [
        {
          "internalType": "address",
          "name": "recipient",
          "type": "address"
        }
      ],
      "name": "transferPrimary",
      "outputs": [],
      "payable": false,
      "stateMutability": "nonpayable",
      "type": "function"
    },
    {
      "constant": true,
      "inputs": [],
      "name": "onlyPrimaryMock",
      "outputs": [],
      "payable": false,
      "stateMutability": "view",
      "type": "function"
    }
  ],
  "bytecode": "0x608060405260006100146100bf60201b60201c565b9050806000806101000a81548173ffffffffffffffffffffffffffffffffffffffff021916908373ffffffffffffffffffffffffffffffffffffffff1602179055507f4101e71e974f68df5e9730cc223280b41654676bbb052cdcc735c3337e64d2d981604051808273ffffffffffffffffffffffffffffffffffffffff1673ffffffffffffffffffffffffffffffffffffffff16815260200191505060405180910390a1506100c7565b600033905090565b610420806100d66000396000f3fe608060405234801561001057600080fd5b50600436106100415760003560e01c80632348238c14610046578063846224251461008a578063c6dbdf6114610094575b600080fd5b6100886004803603602081101561005c57600080fd5b81019080803573ffffffffffffffffffffffffffffffffffffffff1690602001909291905050506100de565b005b6100926102b6565b005b61009c610364565b604051808273ffffffffffffffffffffffffffffffffffffffff1673ffffffffffffffffffffffffffffffffffffffff16815260200191505060405180910390f35b6000809054906101000a900473ffffffffffffffffffffffffffffffffffffffff1673ffffffffffffffffffffffffffffffffffffffff1661011e61038d565b73ffffffffffffffffffffffffffffffffffffffff161461018a576040517f08c379a000000000000000000000000000000000000000000000000000000000815260040180806020018281038252602c8152602001806103c0602c913960400191505060405180910390fd5b600073ffffffffffffffffffffffffffffffffffffffff168173ffffffffffffffffffffffffffffffffffffffff161415610210576040517f08c379a000000000000000000000000000000000000000000000000000000000815260040180806020018281038252602a815260200180610396602a913960400191505060405180910390fd5b806000806101000a81548173ffffffffffffffffffffffffffffffffffffffff021916908373ffffffffffffffffffffffffffffffffffffffff1602179055507f4101e71e974f68df5e9730cc223280b41654676bbb052cdcc735c3337e64d2d981604051808273ffffffffffffffffffffffffffffffffffffffff1673ffffffffffffffffffffffffffffffffffffffff16815260200191505060405180910390a150565b6000809054906101000a900473ffffffffffffffffffffffffffffffffffffffff1673ffffffffffffffffffffffffffffffffffffffff166102f661038d565b73ffffffffffffffffffffffffffffffffffffffff1614610362576040517f08c379a000000000000000000000000000000000000000000000000000000000815260040180806020018281038252602c8152602001806103c0602c913960400191505060405180910390fd5b565b60008060009054906101000a900473ffffffffffffffffffffffffffffffffffffffff16905090565b60003390509056fe5365636f6e646172793a206e6577207072696d61727920697320746865207a65726f20616464726573735365636f6e646172793a2063616c6c6572206973206e6f7420746865207072696d617279206163636f756e74a265627a7a723158202696fcc39add8849d0c1aed84997f59132a72e3691facf02f6b473eeb28e975c64736f6c634300050c0032",
  "source": "pragma solidity ^0.5.0;\n\nimport \"../ownership/Secondary.sol\";\n\ncontract SecondaryMock is Secondary {\n    function onlyPrimaryMock() public view onlyPrimary {\n        // solhint-disable-previous-line no-empty-blocks\n    }\n}\n",
  "sourcePath": "C:/Users/Gayardo/Desktop/monnaieWork/Ux_Ethereum/contracts/library/mocks/SecondaryMock.sol",
  "compiler": {
    "name": "solc",
    "version": "0.5.12+commit.7709ece9.Emscripten.clang"
  },
  "schemaVersion": "3.0.19",
  "updatedAt": "2019-12-04T11:28:58.999Z",
  "devdoc": {
    "methods": {
      "primary()": {
        "return": "the address of the primary."
      },
      "transferPrimary(address)": {
        "details": "Transfers contract to a new primary.",
        "params": {
          "recipient": "The address of new primary."
        }
      }
    }
  },
  "userdoc": {
    "methods": {}
  }
}