{
  "contractName": "Token",
  "abi": [
    {
      "inputs": [],
      "payable": false,
      "stateMutability": "nonpayable",
      "type": "constructor"
    },
    {
      "anonymous": false,
      "inputs": [
        {
          "indexed": true,
          "internalType": "address",
          "name": "owner",
          "type": "address"
        },
        {
          "indexed": true,
          "internalType": "address",
          "name": "approved",
          "type": "address"
        },
        {
          "indexed": true,
          "internalType": "uint256",
          "name": "tokenId",
          "type": "uint256"
        }
      ],
      "name": "Approval",
      "type": "event"
    },
    {
      "anonymous": false,
      "inputs": [
        {
          "indexed": true,
          "internalType": "address",
          "name": "owner",
          "type": "address"
        },
        {
          "indexed": true,
          "internalType": "address",
          "name": "operator",
          "type": "address"
        },
        {
          "indexed": false,
          "internalType": "bool",
          "name": "approved",
          "type": "bool"
        }
      ],
      "name": "ApprovalForAll",
      "type": "event"
    },
    {
      "anonymous": false,
      "inputs": [
        {
          "indexed": true,
          "internalType": "address",
          "name": "from",
          "type": "address"
        },
        {
          "indexed": true,
          "internalType": "address",
          "name": "to",
          "type": "address"
        },
        {
          "indexed": true,
          "internalType": "uint256",
          "name": "tokenId",
          "type": "uint256"
        }
      ],
      "name": "Transfer",
      "type": "event"
    },
    {
      "anonymous": false,
      "inputs": [
        {
          "indexed": true,
          "internalType": "address",
          "name": "account",
          "type": "address"
        }
      ],
      "name": "WhitelistAdminAdded",
      "type": "event"
    },
    {
      "anonymous": false,
      "inputs": [
        {
          "indexed": true,
          "internalType": "address",
          "name": "account",
          "type": "address"
        }
      ],
      "name": "WhitelistAdminRemoved",
      "type": "event"
    },
    {
      "anonymous": false,
      "inputs": [
        {
          "indexed": true,
          "internalType": "address",
          "name": "account",
          "type": "address"
        }
      ],
      "name": "WhitelistedAdded",
      "type": "event"
    },
    {
      "anonymous": false,
      "inputs": [
        {
          "indexed": true,
          "internalType": "address",
          "name": "account",
          "type": "address"
        }
      ],
      "name": "WhitelistedRemoved",
      "type": "event"
    },
    {
      "constant": true,
      "inputs": [],
      "name": "_currentId",
      "outputs": [
        {
          "internalType": "uint256",
          "name": "",
          "type": "uint256"
        }
      ],
      "payable": false,
      "stateMutability": "view",
      "type": "function"
    },
    {
      "constant": false,
      "inputs": [
        {
          "internalType": "address",
          "name": "account",
          "type": "address"
        }
      ],
      "name": "addWhitelistAdmin",
      "outputs": [],
      "payable": false,
      "stateMutability": "nonpayable",
      "type": "function"
    },
    {
      "constant": false,
      "inputs": [
        {
          "internalType": "address",
          "name": "account",
          "type": "address"
        }
      ],
      "name": "addWhitelisted",
      "outputs": [],
      "payable": false,
      "stateMutability": "nonpayable",
      "type": "function"
    },
    {
      "constant": true,
      "inputs": [],
      "name": "counter",
      "outputs": [
        {
          "internalType": "uint256",
          "name": "",
          "type": "uint256"
        }
      ],
      "payable": false,
      "stateMutability": "view",
      "type": "function"
    },
    {
      "constant": true,
      "inputs": [
        {
          "internalType": "address",
          "name": "account",
          "type": "address"
        }
      ],
      "name": "isWhitelistAdmin",
      "outputs": [
        {
          "internalType": "bool",
          "name": "",
          "type": "bool"
        }
      ],
      "payable": false,
      "stateMutability": "view",
      "type": "function"
    },
    {
      "constant": true,
      "inputs": [
        {
          "internalType": "address",
          "name": "account",
          "type": "address"
        }
      ],
      "name": "isWhitelisted",
      "outputs": [
        {
          "internalType": "bool",
          "name": "",
          "type": "bool"
        }
      ],
      "payable": false,
      "stateMutability": "view",
      "type": "function"
    },
    {
      "constant": true,
      "inputs": [],
      "name": "name",
      "outputs": [
        {
          "internalType": "string",
          "name": "",
          "type": "string"
        }
      ],
      "payable": false,
      "stateMutability": "view",
      "type": "function"
    },
    {
      "constant": false,
      "inputs": [
        {
          "internalType": "address",
          "name": "account",
          "type": "address"
        }
      ],
      "name": "removeWhitelisted",
      "outputs": [],
      "payable": false,
      "stateMutability": "nonpayable",
      "type": "function"
    },
    {
      "constant": false,
      "inputs": [],
      "name": "renounceWhitelistAdmin",
      "outputs": [],
      "payable": false,
      "stateMutability": "nonpayable",
      "type": "function"
    },
    {
      "constant": false,
      "inputs": [],
      "name": "renounceWhitelisted",
      "outputs": [],
      "payable": false,
      "stateMutability": "nonpayable",
      "type": "function"
    },
    {
      "constant": true,
      "inputs": [
        {
          "internalType": "bytes4",
          "name": "interfaceId",
          "type": "bytes4"
        }
      ],
      "name": "supportsInterface",
      "outputs": [
        {
          "internalType": "bool",
          "name": "",
          "type": "bool"
        }
      ],
      "payable": false,
      "stateMutability": "view",
      "type": "function"
    },
    {
      "constant": true,
      "inputs": [
        {
          "internalType": "address",
          "name": "owner",
          "type": "address"
        }
      ],
      "name": "balanceOf",
      "outputs": [
        {
          "internalType": "uint256",
          "name": "",
          "type": "uint256"
        }
      ],
      "payable": false,
      "stateMutability": "view",
      "type": "function"
    },
    {
      "constant": true,
      "inputs": [
        {
          "internalType": "uint256",
          "name": "tokenId",
          "type": "uint256"
        }
      ],
      "name": "ownerOf",
      "outputs": [
        {
          "internalType": "address",
          "name": "",
          "type": "address"
        }
      ],
      "payable": false,
      "stateMutability": "view",
      "type": "function"
    },
    {
      "constant": false,
      "inputs": [
        {
          "internalType": "address",
          "name": "to",
          "type": "address"
        },
        {
          "internalType": "uint256",
          "name": "tokenId",
          "type": "uint256"
        }
      ],
      "name": "approve",
      "outputs": [],
      "payable": false,
      "stateMutability": "nonpayable",
      "type": "function"
    },
    {
      "constant": true,
      "inputs": [
        {
          "internalType": "uint256",
          "name": "tokenId",
          "type": "uint256"
        }
      ],
      "name": "getApproved",
      "outputs": [
        {
          "internalType": "address",
          "name": "",
          "type": "address"
        }
      ],
      "payable": false,
      "stateMutability": "view",
      "type": "function"
    },
    {
      "constant": false,
      "inputs": [
        {
          "internalType": "address",
          "name": "to",
          "type": "address"
        },
        {
          "internalType": "bool",
          "name": "approved",
          "type": "bool"
        }
      ],
      "name": "setApprovalForAll",
      "outputs": [],
      "payable": false,
      "stateMutability": "nonpayable",
      "type": "function"
    },
    {
      "constant": true,
      "inputs": [
        {
          "internalType": "address",
          "name": "owner",
          "type": "address"
        },
        {
          "internalType": "address",
          "name": "operator",
          "type": "address"
        }
      ],
      "name": "isApprovedForAll",
      "outputs": [
        {
          "internalType": "bool",
          "name": "",
          "type": "bool"
        }
      ],
      "payable": false,
      "stateMutability": "view",
      "type": "function"
    },
    {
      "constant": false,
      "inputs": [
        {
          "internalType": "address",
          "name": "from",
          "type": "address"
        },
        {
          "internalType": "address",
          "name": "to",
          "type": "address"
        },
        {
          "internalType": "uint256",
          "name": "tokenId",
          "type": "uint256"
        }
      ],
      "name": "transferFrom",
      "outputs": [],
      "payable": false,
      "stateMutability": "nonpayable",
      "type": "function"
    },
    {
      "constant": false,
      "inputs": [
        {
          "internalType": "address",
          "name": "from",
          "type": "address"
        },
        {
          "internalType": "address",
          "name": "to",
          "type": "address"
        },
        {
          "internalType": "uint256",
          "name": "tokenId",
          "type": "uint256"
        }
      ],
      "name": "safeTransferFrom",
      "outputs": [],
      "payable": false,
      "stateMutability": "nonpayable",
      "type": "function"
    },
    {
      "constant": false,
      "inputs": [
        {
          "internalType": "address",
          "name": "from",
          "type": "address"
        },
        {
          "internalType": "address",
          "name": "to",
          "type": "address"
        },
        {
          "internalType": "uint256",
          "name": "tokenId",
          "type": "uint256"
        },
        {
          "internalType": "bytes",
          "name": "_data",
          "type": "bytes"
        }
      ],
      "name": "safeTransferFrom",
      "outputs": [],
      "payable": false,
      "stateMutability": "nonpayable",
      "type": "function"
    },
    {
      "constant": false,
      "inputs": [
        {
          "internalType": "address",
          "name": "to",
          "type": "address"
        }
      ],
      "name": "mintToken",
      "outputs": [
        {
          "internalType": "bool",
          "name": "",
          "type": "bool"
        }
      ],
      "payable": true,
      "stateMutability": "payable",
      "type": "function"
    },
    {
      "constant": true,
      "inputs": [],
      "name": "getRegistryName",
      "outputs": [
        {
          "internalType": "string",
          "name": "",
          "type": "string"
        }
      ],
      "payable": false,
      "stateMutability": "view",
      "type": "function"
    },
    {
      "constant": false,
      "inputs": [],
      "name": "getCounter",
      "outputs": [
        {
          "internalType": "uint256",
          "name": "",
          "type": "uint256"
        }
      ],
      "payable": false,
      "stateMutability": "nonpayable",
      "type": "function"
    }
  ],
  "bytecode": "0x60806040523480156200001157600080fd5b506200002a6301ffc9a760e01b620000a660201b60201c565b620000426380ac58cd60e01b620000a660201b60201c565b6040518060400160405280600f81526020017f4761796172646f52656769737472790000000000000000000000000000000000815250600790805190602001906200008f929190620001af565b50600060088190555060006009819055506200025e565b63ffffffff60e01b817bffffffffffffffffffffffffffffffffffffffffffffffffffffffff1916141562000143576040517f08c379a000000000000000000000000000000000000000000000000000000000815260040180806020018281038252601c8152602001807f4552433136353a20696e76616c696420696e746572666163652069640000000081525060200191505060405180910390fd5b6001600080837bffffffffffffffffffffffffffffffffffffffffffffffffffffffff19167bffffffffffffffffffffffffffffffffffffffffffffffffffffffff1916815260200190815260200160002060006101000a81548160ff02191690831515021790555050565b828054600181600116156101000203166002900490600052602060002090601f016020900481019282601f10620001f257805160ff191683800117855562000223565b8280016001018555821562000223579182015b828111156200022257825182559160200191906001019062000205565b5b50905062000232919062000236565b5090565b6200025b91905b80821115620002575760008160009055506001016200023d565b5090565b90565b6126c0806200026e6000396000f3fe6080604052600436106101405760003560e01c8063574fc493116100b6578063a22cb4651161006f578063a22cb46514610743578063ac575cbb146107a0578063b88d4fde14610830578063bb5f747b14610942578063d6cd9473146109ab578063e985e9c5146109c257610140565b8063574fc4931461059157806361bc221a146105bc5780636352211e146105e757806370a08231146106625780637362d9c8146106c75780638ada066e1461071857610140565b806310154bad1161010857806310154bad1461037957806323b872dd146103ca578063291d9549146104455780633af32abf1461049657806342842e0e146104ff5780634c5a628c1461057a57610140565b806301173a741461014557806301ffc9a7146101a157806306fdde0314610213578063081812fc146102a3578063095ea7b31461031e575b600080fd5b6101876004803603602081101561015b57600080fd5b81019080803573ffffffffffffffffffffffffffffffffffffffff169060200190929190505050610a4b565b604051808215151515815260200191505060405180910390f35b3480156101ad57600080fd5b506101f9600480360360208110156101c457600080fd5b8101908080357bffffffffffffffffffffffffffffffffffffffffffffffffffffffff19169060200190929190505050610a74565b604051808215151515815260200191505060405180910390f35b34801561021f57600080fd5b50610228610adb565b6040518080602001828103825283818151815260200191508051906020019080838360005b8381101561026857808201518184015260208101905061024d565b50505050905090810190601f1680156102955780820380516001836020036101000a031916815260200191505b509250505060405180910390f35b3480156102af57600080fd5b506102dc600480360360208110156102c657600080fd5b8101908080359060200190929190505050610b79565b604051808273ffffffffffffffffffffffffffffffffffffffff1673ffffffffffffffffffffffffffffffffffffffff16815260200191505060405180910390f35b34801561032a57600080fd5b506103776004803603604081101561034157600080fd5b81019080803573ffffffffffffffffffffffffffffffffffffffff16906020019092919080359060200190929190505050610c14565b005b34801561038557600080fd5b506103c86004803603602081101561039c57600080fd5b81019080803573ffffffffffffffffffffffffffffffffffffffff169060200190929190505050610dfb565b005b3480156103d657600080fd5b50610443600480360360608110156103ed57600080fd5b81019080803573ffffffffffffffffffffffffffffffffffffffff169060200190929190803573ffffffffffffffffffffffffffffffffffffffff16906020019092919080359060200190929190505050610e6c565b005b34801561045157600080fd5b506104946004803603602081101561046857600080fd5b81019080803573ffffffffffffffffffffffffffffffffffffffff169060200190929190505050610ee2565b005b3480156104a257600080fd5b506104e5600480360360208110156104b957600080fd5b81019080803573ffffffffffffffffffffffffffffffffffffffff169060200190929190505050610f53565b604051808215151515815260200191505060405180910390f35b34801561050b57600080fd5b506105786004803603606081101561052257600080fd5b81019080803573ffffffffffffffffffffffffffffffffffffffff169060200190929190803573ffffffffffffffffffffffffffffffffffffffff16906020019092919080359060200190929190505050610f70565b005b34801561058657600080fd5b5061058f610f90565b005b34801561059d57600080fd5b506105a6610fa2565b6040518082815260200191505060405180910390f35b3480156105c857600080fd5b506105d1610fa8565b6040518082815260200191505060405180910390f35b3480156105f357600080fd5b506106206004803603602081101561060a57600080fd5b8101908080359060200190929190505050610fae565b604051808273ffffffffffffffffffffffffffffffffffffffff1673ffffffffffffffffffffffffffffffffffffffff16815260200191505060405180910390f35b34801561066e57600080fd5b506106b16004803603602081101561068557600080fd5b81019080803573ffffffffffffffffffffffffffffffffffffffff169060200190929190505050611076565b6040518082815260200191505060405180910390f35b3480156106d357600080fd5b50610716600480360360208110156106ea57600080fd5b81019080803573ffffffffffffffffffffffffffffffffffffffff16906020019092919050505061114b565b005b34801561072457600080fd5b5061072d6111bc565b6040518082815260200191505060405180910390f35b34801561074f57600080fd5b5061079e6004803603604081101561076657600080fd5b81019080803573ffffffffffffffffffffffffffffffffffffffff169060200190929190803515159060200190929190505050611244565b005b3480156107ac57600080fd5b506107b56113fc565b6040518080602001828103825283818151815260200191508051906020019080838360005b838110156107f55780820151818401526020810190506107da565b50505050905090810190601f1680156108225780820380516001836020036101000a031916815260200191505b509250505060405180910390f35b34801561083c57600080fd5b506109406004803603608081101561085357600080fd5b81019080803573ffffffffffffffffffffffffffffffffffffffff169060200190929190803573ffffffffffffffffffffffffffffffffffffffff16906020019092919080359060200190929190803590602001906401000000008111156108ba57600080fd5b8201836020820111156108cc57600080fd5b803590602001918460018302840111640100000000831117156108ee57600080fd5b91908080601f016020809104026020016040519081016040528093929190818152602001838380828437600081840152601f19601f82011690508083019250505050505050919291929050505061149e565b005b34801561094e57600080fd5b506109916004803603602081101561096557600080fd5b81019080803573ffffffffffffffffffffffffffffffffffffffff169060200190929190505050611516565b604051808215151515815260200191505060405180910390f35b3480156109b757600080fd5b506109c0611533565b005b3480156109ce57600080fd5b50610a31600480360360408110156109e557600080fd5b81019080803573ffffffffffffffffffffffffffffffffffffffff169060200190929190803573ffffffffffffffffffffffffffffffffffffffff169060200190929190505050611545565b604051808215151515815260200191505060405180910390f35b6000600960008154809291906001019190505550610a6b826009546115d9565b60019050919050565b6000806000837bffffffffffffffffffffffffffffffffffffffffffffffffffffffff19167bffffffffffffffffffffffffffffffffffffffffffffffffffffffff1916815260200190815260200160002060009054906101000a900460ff169050919050565b60078054600181600116156101000203166002900480601f016020809104026020016040519081016040528092919081815260200182805460018160011615610100020316600290048015610b715780601f10610b4657610100808354040283529160200191610b71565b820191906000526020600020905b815481529060010190602001808311610b5457829003601f168201915b505050505081565b6000610b84826117f1565b610bd9576040517f08c379a000000000000000000000000000000000000000000000000000000000815260040180806020018281038252602c815260200180612583602c913960400191505060405180910390fd5b6004600083815260200190815260200160002060009054906101000a900473ffffffffffffffffffffffffffffffffffffffff169050919050565b6000610c1f82610fae565b90508073ffffffffffffffffffffffffffffffffffffffff168373ffffffffffffffffffffffffffffffffffffffff161415610ca6576040517f08c379a000000000000000000000000000000000000000000000000000000000815260040180806020018281038252602181526020018061263a6021913960400191505060405180910390fd5b8073ffffffffffffffffffffffffffffffffffffffff16610cc5611863565b73ffffffffffffffffffffffffffffffffffffffff161480610cf45750610cf381610cee611863565b611545565b5b610d49576040517f08c379a00000000000000000000000000000000000000000000000000000000081526004018080602001828103825260388152602001806124d76038913960400191505060405180910390fd5b826004600084815260200190815260200160002060006101000a81548173ffffffffffffffffffffffffffffffffffffffff021916908373ffffffffffffffffffffffffffffffffffffffff160217905550818373ffffffffffffffffffffffffffffffffffffffff168273ffffffffffffffffffffffffffffffffffffffff167f8c5be1e5ebec7d5bd14f71427d1e84f3dd0314c0f7b2291e5b200ac8c7c3b92560405160405180910390a4505050565b610e0b610e06611863565b611516565b610e60576040517f08c379a00000000000000000000000000000000000000000000000000000000081526004018080602001828103825260408152602001806125fa6040913960400191505060405180910390fd5b610e698161186b565b50565b610e7d610e77611863565b826118c5565b610ed2576040517f08c379a000000000000000000000000000000000000000000000000000000000815260040180806020018281038252603181526020018061265b6031913960400191505060405180910390fd5b610edd8383836119b9565b505050565b610ef2610eed611863565b611516565b610f47576040517f08c379a00000000000000000000000000000000000000000000000000000000081526004018080602001828103825260408152602001806125fa6040913960400191505060405180910390fd5b610f5081611c14565b50565b6000610f69826002611c6e90919063ffffffff16565b9050919050565b610f8b8383836040518060200160405280600081525061149e565b505050565b610fa0610f9b611863565b611d4c565b565b60095481565b60085481565b6000806003600084815260200190815260200160002060009054906101000a900473ffffffffffffffffffffffffffffffffffffffff169050600073ffffffffffffffffffffffffffffffffffffffff168173ffffffffffffffffffffffffffffffffffffffff16141561106d576040517f08c379a00000000000000000000000000000000000000000000000000000000081526004018080602001828103825260298152602001806125396029913960400191505060405180910390fd5b80915050919050565b60008073ffffffffffffffffffffffffffffffffffffffff168273ffffffffffffffffffffffffffffffffffffffff1614156110fd576040517f08c379a000000000000000000000000000000000000000000000000000000000815260040180806020018281038252602a81526020018061250f602a913960400191505060405180910390fd5b611144600560008473ffffffffffffffffffffffffffffffffffffffff1673ffffffffffffffffffffffffffffffffffffffff168152602001908152602001600020611da6565b9050919050565b61115b611156611863565b611516565b6111b0576040517f08c379a00000000000000000000000000000000000000000000000000000000081526004018080602001828103825260408152602001806125fa6040913960400191505060405180910390fd5b6111b981611db4565b50565b60003073ffffffffffffffffffffffffffffffffffffffff1663574fc4936040518163ffffffff1660e01b815260040160206040518083038186803b15801561120457600080fd5b505afa158015611218573d6000803e3d6000fd5b505050506040513d602081101561122e57600080fd5b8101908080519060200190929190505050905090565b61124c611863565b73ffffffffffffffffffffffffffffffffffffffff168273ffffffffffffffffffffffffffffffffffffffff1614156112ed576040517f08c379a00000000000000000000000000000000000000000000000000000000081526004018080602001828103825260198152602001807f4552433732313a20617070726f766520746f2063616c6c65720000000000000081525060200191505060405180910390fd5b80600660006112fa611863565b73ffffffffffffffffffffffffffffffffffffffff1673ffffffffffffffffffffffffffffffffffffffff16815260200190815260200160002060008473ffffffffffffffffffffffffffffffffffffffff1673ffffffffffffffffffffffffffffffffffffffff16815260200190815260200160002060006101000a81548160ff0219169083151502179055508173ffffffffffffffffffffffffffffffffffffffff166113a7611863565b73ffffffffffffffffffffffffffffffffffffffff167f17307eab39ab6107e8899845ad3d59bd9653f200f220920489ca2b5937696c3183604051808215151515815260200191505060405180910390a35050565b606060078054600181600116156101000203166002900480601f0160208091040260200160405190810160405280929190818152602001828054600181600116156101000203166002900480156114945780601f1061146957610100808354040283529160200191611494565b820191906000526020600020905b81548152906001019060200180831161147757829003601f168201915b5050505050905090565b6114af6114a9611863565b836118c5565b611504576040517f08c379a000000000000000000000000000000000000000000000000000000000815260040180806020018281038252603181526020018061265b6031913960400191505060405180910390fd5b61151084848484611e0e565b50505050565b600061152c826001611c6e90919063ffffffff16565b9050919050565b61154361153e611863565b611c14565b565b6000600660008473ffffffffffffffffffffffffffffffffffffffff1673ffffffffffffffffffffffffffffffffffffffff16815260200190815260200160002060008373ffffffffffffffffffffffffffffffffffffffff1673ffffffffffffffffffffffffffffffffffffffff16815260200190815260200160002060009054906101000a900460ff16905092915050565b600073ffffffffffffffffffffffffffffffffffffffff168273ffffffffffffffffffffffffffffffffffffffff16141561167c576040517f08c379a00000000000000000000000000000000000000000000000000000000081526004018080602001828103825260208152602001807f4552433732313a206d696e7420746f20746865207a65726f206164647265737381525060200191505060405180910390fd5b611685816117f1565b156116f8576040517f08c379a000000000000000000000000000000000000000000000000000000000815260040180806020018281038252601c8152602001807f4552433732313a20746f6b656e20616c7265616479206d696e7465640000000081525060200191505060405180910390fd5b816003600083815260200190815260200160002060006101000a81548173ffffffffffffffffffffffffffffffffffffffff021916908373ffffffffffffffffffffffffffffffffffffffff160217905550611791600560008473ffffffffffffffffffffffffffffffffffffffff1673ffffffffffffffffffffffffffffffffffffffff168152602001908152602001600020611e80565b808273ffffffffffffffffffffffffffffffffffffffff16600073ffffffffffffffffffffffffffffffffffffffff167fddf252ad1be2c89b69c2b068fc378daa952ba7f163c4a11628f55a4df523b3ef60405160405180910390a45050565b6000806003600084815260200190815260200160002060009054906101000a900473ffffffffffffffffffffffffffffffffffffffff169050600073ffffffffffffffffffffffffffffffffffffffff168173ffffffffffffffffffffffffffffffffffffffff161415915050919050565b600033905090565b61187f816002611e9690919063ffffffff16565b8073ffffffffffffffffffffffffffffffffffffffff167fee1504a83b6d4a361f4c1dc78ab59bfa30d6a3b6612c403e86bb01ef2984295f60405160405180910390a250565b60006118d0826117f1565b611925576040517f08c379a000000000000000000000000000000000000000000000000000000000815260040180806020018281038252602c8152602001806124ab602c913960400191505060405180910390fd5b600061193083610fae565b90508073ffffffffffffffffffffffffffffffffffffffff168473ffffffffffffffffffffffffffffffffffffffff16148061199f57508373ffffffffffffffffffffffffffffffffffffffff1661198784610b79565b73ffffffffffffffffffffffffffffffffffffffff16145b806119b057506119af8185611545565b5b91505092915050565b8273ffffffffffffffffffffffffffffffffffffffff166119d982610fae565b73ffffffffffffffffffffffffffffffffffffffff1614611a45576040517f08c379a00000000000000000000000000000000000000000000000000000000081526004018080602001828103825260298152602001806125d16029913960400191505060405180910390fd5b600073ffffffffffffffffffffffffffffffffffffffff168273ffffffffffffffffffffffffffffffffffffffff161415611acb576040517f08c379a00000000000000000000000000000000000000000000000000000000081526004018080602001828103825260248152602001806124876024913960400191505060405180910390fd5b611ad481611f71565b611b1b600560008573ffffffffffffffffffffffffffffffffffffffff1673ffffffffffffffffffffffffffffffffffffffff16815260200190815260200160002061202f565b611b62600560008473ffffffffffffffffffffffffffffffffffffffff1673ffffffffffffffffffffffffffffffffffffffff168152602001908152602001600020611e80565b816003600083815260200190815260200160002060006101000a81548173ffffffffffffffffffffffffffffffffffffffff021916908373ffffffffffffffffffffffffffffffffffffffff160217905550808273ffffffffffffffffffffffffffffffffffffffff168473ffffffffffffffffffffffffffffffffffffffff167fddf252ad1be2c89b69c2b068fc378daa952ba7f163c4a11628f55a4df523b3ef60405160405180910390a4505050565b611c2881600261205290919063ffffffff16565b8073ffffffffffffffffffffffffffffffffffffffff167f270d9b30cf5b0793bbfd54c9d5b94aeb49462b8148399000265144a8722da6b660405160405180910390a250565b60008073ffffffffffffffffffffffffffffffffffffffff168273ffffffffffffffffffffffffffffffffffffffff161415611cf5576040517f08c379a00000000000000000000000000000000000000000000000000000000081526004018080602001828103825260228152602001806125af6022913960400191505060405180910390fd5b8260000160008373ffffffffffffffffffffffffffffffffffffffff1673ffffffffffffffffffffffffffffffffffffffff16815260200190815260200160002060009054906101000a900460ff16905092915050565b611d6081600161205290919063ffffffff16565b8073ffffffffffffffffffffffffffffffffffffffff167f0a8eb35e5ca14b3d6f28e4abf2f128dbab231a58b56e89beb5d636115001e16560405160405180910390a250565b600081600001549050919050565b611dc8816001611e9690919063ffffffff16565b8073ffffffffffffffffffffffffffffffffffffffff167f22380c05984257a1cb900161c713dd71d39e74820f1aea43bd3f1bdd2096129960405160405180910390a250565b611e198484846119b9565b611e258484848461210f565b611e7a576040517f08c379a00000000000000000000000000000000000000000000000000000000081526004018080602001828103825260328152602001806124556032913960400191505060405180910390fd5b50505050565b6001816000016000828254019250508190555050565b611ea08282611c6e565b15611f13576040517f08c379a000000000000000000000000000000000000000000000000000000000815260040180806020018281038252601f8152602001807f526f6c65733a206163636f756e7420616c72656164792068617320726f6c650081525060200191505060405180910390fd5b60018260000160008373ffffffffffffffffffffffffffffffffffffffff1673ffffffffffffffffffffffffffffffffffffffff16815260200190815260200160002060006101000a81548160ff0219169083151502179055505050565b600073ffffffffffffffffffffffffffffffffffffffff166004600083815260200190815260200160002060009054906101000a900473ffffffffffffffffffffffffffffffffffffffff1673ffffffffffffffffffffffffffffffffffffffff161461202c5760006004600083815260200190815260200160002060006101000a81548173ffffffffffffffffffffffffffffffffffffffff021916908373ffffffffffffffffffffffffffffffffffffffff1602179055505b50565b612047600182600001546122ff90919063ffffffff16565b816000018190555050565b61205c8282611c6e565b6120b1576040517f08c379a00000000000000000000000000000000000000000000000000000000081526004018080602001828103825260218152602001806125626021913960400191505060405180910390fd5b60008260000160008373ffffffffffffffffffffffffffffffffffffffff1673ffffffffffffffffffffffffffffffffffffffff16815260200190815260200160002060006101000a81548160ff0219169083151502179055505050565b60006121308473ffffffffffffffffffffffffffffffffffffffff16612349565b61213d57600190506122f7565b60008473ffffffffffffffffffffffffffffffffffffffff1663150b7a02612163611863565b8887876040518563ffffffff1660e01b8152600401808573ffffffffffffffffffffffffffffffffffffffff1673ffffffffffffffffffffffffffffffffffffffff1681526020018473ffffffffffffffffffffffffffffffffffffffff1673ffffffffffffffffffffffffffffffffffffffff16815260200183815260200180602001828103825283818151815260200191508051906020019080838360005b8381101561221f578082015181840152602081019050612204565b50505050905090810190601f16801561224c5780820380516001836020036101000a031916815260200191505b5095505050505050602060405180830381600087803b15801561226e57600080fd5b505af1158015612282573d6000803e3d6000fd5b505050506040513d602081101561229857600080fd5b8101908080519060200190929190505050905063150b7a0260e01b7bffffffffffffffffffffffffffffffffffffffffffffffffffffffff1916817bffffffffffffffffffffffffffffffffffffffffffffffffffffffff1916149150505b949350505050565b600061234183836040518060400160405280601e81526020017f536166654d6174683a207375627472616374696f6e206f766572666c6f770000815250612394565b905092915050565b60008060007fc5d2460186f7233c927e7db2dcc703c0e500b653ca82273b7bfad8045d85a47060001b9050833f91506000801b821415801561238b5750808214155b92505050919050565b6000838311158290612441576040517f08c379a00000000000000000000000000000000000000000000000000000000081526004018080602001828103825283818151815260200191508051906020019080838360005b838110156124065780820151818401526020810190506123eb565b50505050905090810190601f1680156124335780820380516001836020036101000a031916815260200191505b509250505060405180910390fd5b506000838503905080915050939250505056fe4552433732313a207472616e7366657220746f206e6f6e20455243373231526563656976657220696d706c656d656e7465724552433732313a207472616e7366657220746f20746865207a65726f20616464726573734552433732313a206f70657261746f7220717565727920666f72206e6f6e6578697374656e7420746f6b656e4552433732313a20617070726f76652063616c6c6572206973206e6f74206f776e6572206e6f7220617070726f76656420666f7220616c6c4552433732313a2062616c616e636520717565727920666f7220746865207a65726f20616464726573734552433732313a206f776e657220717565727920666f72206e6f6e6578697374656e7420746f6b656e526f6c65733a206163636f756e7420646f6573206e6f74206861766520726f6c654552433732313a20617070726f76656420717565727920666f72206e6f6e6578697374656e7420746f6b656e526f6c65733a206163636f756e7420697320746865207a65726f20616464726573734552433732313a207472616e73666572206f6620746f6b656e2074686174206973206e6f74206f776e57686974656c69737441646d696e526f6c653a2063616c6c657220646f6573206e6f742068617665207468652057686974656c69737441646d696e20726f6c654552433732313a20617070726f76616c20746f2063757272656e74206f776e65724552433732313a207472616e736665722063616c6c6572206973206e6f74206f776e6572206e6f7220617070726f766564a265627a7a723158203025c9e1133ffaa9affd6cca35b8bf3ad61f7f2e211e0816f3d410349b79953a64736f6c634300050c0032",
  "source": "pragma solidity ^0.5.0;\r\n\r\n\r\n\r\nimport \"./library/GSN/Context.sol\";\r\nimport \"./library/token/ERC721/IERC721.sol\";\r\nimport \"./library/token/ERC721/IERC721Receiver.sol\";\r\nimport \"./library/math/SafeMath.sol\";\r\nimport \"./library/utils/Address.sol\";\r\nimport \"./library/drafts/Counters.sol\";\r\nimport \"./library/introspection/ERC165.sol\";\r\nimport \"./library/access/roles/WhitelistedRole.sol\";\r\n\r\n/**\r\n * @title ERC721 Non-Fungible Token Standard basic implementation\r\n * @dev see https://eips.ethereum.org/EIPS/eip-721\r\n */\r\ncontract Token is Context, ERC165, IERC721, WhitelistedRole {\r\n    using SafeMath for uint256;\r\n    using Address for address;\r\n    using Counters for Counters.Counter;\r\n\r\n    // Equals to `bytes4(keccak256(\"onERC721Received(address,address,uint256,bytes)\"))`\r\n    // which can be also obtained as `IERC721Receiver(0).onERC721Received.selector`\r\n    bytes4 private constant _ERC721_RECEIVED = 0x150b7a02;\r\n\r\n    // Mapping from token ID to owner\r\n    mapping (uint256 => address) private _tokenOwner;\r\n\r\n    // Mapping from token ID to approved address\r\n    mapping (uint256 => address) private _tokenApprovals;\r\n\r\n    // Mapping from owner to number of owned token\r\n    mapping (address => Counters.Counter) private _ownedTokensCount;\r\n\r\n    // Mapping from owner to operator approvals\r\n    mapping (address => mapping (address => bool)) private _operatorApprovals;\r\n\r\n    string public name;\r\n\r\n    uint public counter;\r\n\r\n    /*\r\n     *     bytes4(keccak256('balanceOf(address)')) == 0x70a08231\r\n     *     bytes4(keccak256('ownerOf(uint256)')) == 0x6352211e\r\n     *     bytes4(keccak256('approve(address,uint256)')) == 0x095ea7b3\r\n     *     bytes4(keccak256('getApproved(uint256)')) == 0x081812fc\r\n     *     bytes4(keccak256('setApprovalForAll(address,bool)')) == 0xa22cb465\r\n     *     bytes4(keccak256('isApprovedForAll(address,address)')) == 0xe985e9c5\r\n     *     bytes4(keccak256('transferFrom(address,address,uint256)')) == 0x23b872dd\r\n     *     bytes4(keccak256('safeTransferFrom(address,address,uint256)')) == 0x42842e0e\r\n     *     bytes4(keccak256('safeTransferFrom(address,address,uint256,bytes)')) == 0xb88d4fde\r\n     *\r\n     *     => 0x70a08231 ^ 0x6352211e ^ 0x095ea7b3 ^ 0x081812fc ^\r\n     *        0xa22cb465 ^ 0xe985e9c ^ 0x23b872dd ^ 0x42842e0e ^ 0xb88d4fde == 0x80ac58cd\r\n     */\r\n\r\n    uint public _currentId;\r\n\r\n    bytes4 private constant _INTERFACE_ID_ERC721 = 0x80ac58cd;\r\n\r\n    constructor () public {\r\n        // register the supported interfaces to conform to ERC721 via ERC165\r\n        _registerInterface(_INTERFACE_ID_ERC721);\r\n        name='GayardoRegistry';\r\n        counter=0;\r\n        _currentId=0;\r\n        \r\n    }\r\n\r\n    /**\r\n     * @dev Gets the balance of the specified address.\r\n     * @param owner address to query the balance of\r\n     * @return uint256 representing the amount owned by the passed address\r\n     */\r\n    function balanceOf(address owner) public view returns (uint256) {\r\n        require(owner != address(0), \"ERC721: balance query for the zero address\");\r\n\r\n        return _ownedTokensCount[owner].current();\r\n    }\r\n\r\n    /**\r\n     * @dev Gets the owner of the specified token ID.\r\n     * @param tokenId uint256 ID of the token to query the owner of\r\n     * @return address currently marked as the owner of the given token ID\r\n     */\r\n    function ownerOf(uint256 tokenId) public view returns (address) {\r\n        address owner = _tokenOwner[tokenId];\r\n        require(owner != address(0), \"ERC721: owner query for nonexistent token\");\r\n\r\n        return owner;\r\n    }\r\n\r\n    /**\r\n     * @dev Approves another address to transfer the given token ID\r\n     * The zero address indicates there is no approved address.\r\n     * There can only be one approved address per token at a given time.\r\n     * Can only be called by the token owner or an approved operator.\r\n     * @param to address to be approved for the given token ID\r\n     * @param tokenId uint256 ID of the token to be approved\r\n     */\r\n    function approve(address to, uint256 tokenId) public {\r\n        address owner = ownerOf(tokenId);\r\n        require(to != owner, \"ERC721: approval to current owner\");\r\n\r\n        require(_msgSender() == owner || isApprovedForAll(owner, _msgSender()),\r\n            \"ERC721: approve caller is not owner nor approved for all\"\r\n        );\r\n\r\n        _tokenApprovals[tokenId] = to;\r\n        emit Approval(owner, to, tokenId);\r\n    }\r\n\r\n    /**\r\n     * @dev Gets the approved address for a token ID, or zero if no address set\r\n     * Reverts if the token ID does not exist.\r\n     * @param tokenId uint256 ID of the token to query the approval of\r\n     * @return address currently approved for the given token ID\r\n     */\r\n    function getApproved(uint256 tokenId) public view returns (address) {\r\n        require(_exists(tokenId), \"ERC721: approved query for nonexistent token\");\r\n\r\n        return _tokenApprovals[tokenId];\r\n    }\r\n\r\n    /**\r\n     * @dev Sets or unsets the approval of a given operator\r\n     * An operator is allowed to transfer all tokens of the sender on their behalf.\r\n     * @param to operator address to set the approval\r\n     * @param approved representing the status of the approval to be set\r\n     */\r\n    function setApprovalForAll(address to, bool approved) public {\r\n        require(to != _msgSender(), \"ERC721: approve to caller\");\r\n\r\n        _operatorApprovals[_msgSender()][to] = approved;\r\n        emit ApprovalForAll(_msgSender(), to, approved);\r\n    }\r\n\r\n    /**\r\n     * @dev Tells whether an operator is approved by a given owner.\r\n     * @param owner owner address which you want to query the approval of\r\n     * @param operator operator address which you want to query the approval of\r\n     * @return bool whether the given operator is approved by the given owner\r\n     */\r\n    function isApprovedForAll(address owner, address operator) public view returns (bool) {\r\n        return _operatorApprovals[owner][operator];\r\n    }\r\n\r\n    /**\r\n     * @dev Transfers the ownership of a given token ID to another address.\r\n     * Usage of this method is discouraged, use {safeTransferFrom} whenever possible.\r\n     * Requires the msg.sender to be the owner, approved, or operator.\r\n     * @param from current owner of the token\r\n     * @param to address to receive the ownership of the given token ID\r\n     * @param tokenId uint256 ID of the token to be transferred\r\n     */\r\n    function transferFrom(address from, address to, uint256 tokenId) public {\r\n        //solhint-disable-next-line max-line-length\r\n        require(_isApprovedOrOwner(_msgSender(), tokenId), \"ERC721: transfer caller is not owner nor approved\");\r\n\r\n        _transferFrom(from, to, tokenId);\r\n    }\r\n\r\n    /**\r\n     * @dev Safely transfers the ownership of a given token ID to another address\r\n     * If the target address is a contract, it must implement {IERC721Receiver-onERC721Received},\r\n     * which is called upon a safe transfer, and return the magic value\r\n     * `bytes4(keccak256(\"onERC721Received(address,address,uint256,bytes)\"))`; otherwise,\r\n     * the transfer is reverted.\r\n     * Requires the msg.sender to be the owner, approved, or operator\r\n     * @param from current owner of the token\r\n     * @param to address to receive the ownership of the given token ID\r\n     * @param tokenId uint256 ID of the token to be transferred\r\n     */\r\n    function safeTransferFrom(address from, address to, uint256 tokenId) public {\r\n        safeTransferFrom(from, to, tokenId, \"\");\r\n    }\r\n\r\n    /**\r\n     * @dev Safely transfers the ownership of a given token ID to another address\r\n     * If the target address is a contract, it must implement {IERC721Receiver-onERC721Received},\r\n     * which is called upon a safe transfer, and return the magic value\r\n     * `bytes4(keccak256(\"onERC721Received(address,address,uint256,bytes)\"))`; otherwise,\r\n     * the transfer is reverted.\r\n     * Requires the _msgSender() to be the owner, approved, or operator\r\n     * @param from current owner of the token\r\n     * @param to address to receive the ownership of the given token ID\r\n     * @param tokenId uint256 ID of the token to be transferred\r\n     * @param _data bytes data to send along with a safe transfer check\r\n     */\r\n    function safeTransferFrom(address from, address to, uint256 tokenId, bytes memory _data) public {\r\n        require(_isApprovedOrOwner(_msgSender(), tokenId), \"ERC721: transfer caller is not owner nor approved\");\r\n        _safeTransferFrom(from, to, tokenId, _data);\r\n    }\r\n\r\n    /**\r\n     * @dev Safely transfers the ownership of a given token ID to another address\r\n     * If the target address is a contract, it must implement `onERC721Received`,\r\n     * which is called upon a safe transfer, and return the magic value\r\n     * `bytes4(keccak256(\"onERC721Received(address,address,uint256,bytes)\"))`; otherwise,\r\n     * the transfer is reverted.\r\n     * Requires the msg.sender to be the owner, approved, or operator\r\n     * @param from current owner of the token\r\n     * @param to address to receive the ownership of the given token ID\r\n     * @param tokenId uint256 ID of the token to be transferred\r\n     * @param _data bytes data to send along with a safe transfer check\r\n     */\r\n    function _safeTransferFrom(address from, address to, uint256 tokenId, bytes memory _data) internal {\r\n        _transferFrom(from, to, tokenId);\r\n        require(_checkOnERC721Received(from, to, tokenId, _data), \"ERC721: transfer to non ERC721Receiver implementer\");\r\n    }\r\n\r\n    /**\r\n     * @dev Returns whether the specified token exists.\r\n     * @param tokenId uint256 ID of the token to query the existence of\r\n     * @return bool whether the token exists\r\n     */\r\n    function _exists(uint256 tokenId) internal view returns (bool) {\r\n        address owner = _tokenOwner[tokenId];\r\n        return owner != address(0);\r\n    }\r\n\r\n    /**\r\n     * @dev Returns whether the given spender can transfer a given token ID.\r\n     * @param spender address of the spender to query\r\n     * @param tokenId uint256 ID of the token to be transferred\r\n     * @return bool whether the msg.sender is approved for the given token ID,\r\n     * is an operator of the owner, or is the owner of the token\r\n     */\r\n    function _isApprovedOrOwner(address spender, uint256 tokenId) internal view returns (bool) {\r\n        require(_exists(tokenId), \"ERC721: operator query for nonexistent token\");\r\n        address owner = ownerOf(tokenId);\r\n        return (spender == owner || getApproved(tokenId) == spender || isApprovedForAll(owner, spender));\r\n    }\r\n\r\n    /**\r\n     * @dev Internal function to safely mint a new token.\r\n     * Reverts if the given token ID already exists.\r\n     * If the target address is a contract, it must implement `onERC721Received`,\r\n     * which is called upon a safe transfer, and return the magic value\r\n     * `bytes4(keccak256(\"onERC721Received(address,address,uint256,bytes)\"))`; otherwise,\r\n     * the transfer is reverted.\r\n     * @param to The address that will own the minted token\r\n     * @param tokenId uint256 ID of the token to be minted\r\n     */\r\n    function _safeMint(address to, uint256 tokenId) internal {\r\n        _safeMint(to, tokenId, \"\");\r\n    }\r\n\r\n    /**\r\n     * @dev Internal function to safely mint a new token.\r\n     * Reverts if the given token ID already exists.\r\n     * If the target address is a contract, it must implement `onERC721Received`,\r\n     * which is called upon a safe transfer, and return the magic value\r\n     * `bytes4(keccak256(\"onERC721Received(address,address,uint256,bytes)\"))`; otherwise,\r\n     * the transfer is reverted.\r\n     * @param to The address that will own the minted token\r\n     * @param tokenId uint256 ID of the token to be minted\r\n     * @param _data bytes data to send along with a safe transfer check\r\n     */\r\n    function _safeMint(address to, uint256 tokenId, bytes memory _data) internal {\r\n        _mint(to, tokenId);\r\n        require(_checkOnERC721Received(address(0), to, tokenId, _data), \"ERC721: transfer to non ERC721Receiver implementer\");\r\n    }\r\n\r\n    /**\r\n     * @dev Internal function to mint a new token.\r\n     * Reverts if the given token ID already exists.\r\n     * @param to The address that will own the minted token\r\n     * @param tokenId uint256 ID of the token to be minted\r\n     */\r\n    function _mint(address to, uint256 tokenId) internal {\r\n        require(to != address(0), \"ERC721: mint to the zero address\");\r\n        require(!_exists(tokenId), \"ERC721: token already minted\");\r\n\r\n        _tokenOwner[tokenId] = to;\r\n        _ownedTokensCount[to].increment();\r\n\r\n        emit Transfer(address(0), to, tokenId);\r\n    }\r\n\r\n    /**\r\n     * @dev Internal function to burn a specific token.\r\n     * Reverts if the token does not exist.\r\n     * Deprecated, use {_burn} instead.\r\n     * @param owner owner of the token to burn\r\n     * @param tokenId uint256 ID of the token being burned\r\n     */\r\n    function _burn(address owner, uint256 tokenId) internal {\r\n        require(ownerOf(tokenId) == owner, \"ERC721: burn of token that is not own\");\r\n\r\n        _clearApproval(tokenId);\r\n\r\n        _ownedTokensCount[owner].decrement();\r\n        _tokenOwner[tokenId] = address(0);\r\n\r\n        emit Transfer(owner, address(0), tokenId);\r\n    }\r\n\r\n    /**\r\n     * @dev Internal function to burn a specific token.\r\n     * Reverts if the token does not exist.\r\n     * @param tokenId uint256 ID of the token being burned\r\n     */\r\n    function _burn(uint256 tokenId) internal {\r\n        _burn(ownerOf(tokenId), tokenId);\r\n    }\r\n\r\n    /**\r\n     * @dev Internal function to transfer ownership of a given token ID to another address.\r\n     * As opposed to {transferFrom}, this imposes no restrictions on msg.sender.\r\n     * @param from current owner of the token\r\n     * @param to address to receive the ownership of the given token ID\r\n     * @param tokenId uint256 ID of the token to be transferred\r\n     */\r\n    function _transferFrom(address from, address to, uint256 tokenId) internal {\r\n        require(ownerOf(tokenId) == from, \"ERC721: transfer of token that is not own\");\r\n        require(to != address(0), \"ERC721: transfer to the zero address\");\r\n\r\n        _clearApproval(tokenId);\r\n\r\n        _ownedTokensCount[from].decrement();\r\n        _ownedTokensCount[to].increment();\r\n\r\n        _tokenOwner[tokenId] = to;\r\n\r\n        emit Transfer(from, to, tokenId);\r\n    }\r\n\r\n    /**\r\n     * @dev Internal function to invoke {IERC721Receiver-onERC721Received} on a target address.\r\n     * The call is not executed if the target address is not a contract.\r\n     *\r\n     * This is an internal detail of the `ERC721` contract and its use is deprecated.\r\n     * @param from address representing the previous owner of the given token ID\r\n     * @param to target address that will receive the tokens\r\n     * @param tokenId uint256 ID of the token to be transferred\r\n     * @param _data bytes optional data to send along with the call\r\n     * @return bool whether the call correctly returned the expected magic value\r\n     */\r\n    function _checkOnERC721Received(address from, address to, uint256 tokenId, bytes memory _data)\r\n        internal returns (bool)\r\n    {\r\n        if (!to.isContract()) {\r\n            return true;\r\n        }\r\n\r\n        bytes4 retval = IERC721Receiver(to).onERC721Received(_msgSender(), from, tokenId, _data);\r\n        return (retval == _ERC721_RECEIVED);\r\n    }\r\n\r\n    /**\r\n     * @dev Private function to clear current approval of a given token ID.\r\n     * @param tokenId uint256 ID of the token to be transferred\r\n     */\r\n    function _clearApproval(uint256 tokenId) private {\r\n        if (_tokenApprovals[tokenId] != address(0)) {\r\n            _tokenApprovals[tokenId] = address(0);\r\n        }\r\n    }\r\n    //function declareAnimal(address to, typeAnimal race, uint age, Color color, uint rarity, string memory name)\r\n    //    public onlyWhitelisted() returns (bool) {\r\n    //    _currentId++;\r\n    //    Animal memory animal = Animal(_currentId, race, age, color, rarity,name);\r\n    //    _animalsOfOwner[msg.sender].push(animal);\r\n\r\n    //    _mint(to, _currentId);\r\n    //    return true;\r\n    //}\r\n    \r\n\r\n    function mintToken(address to) payable public returns (bool){\r\n        \r\n        \r\n        //require(msg.value == 0.1 ether);\r\n        _currentId++;\r\n        _mint(to, _currentId);\r\n\r\n        return true;\r\n    }\r\n\r\n    function getRegistryName() public view returns(string memory){\r\n        return name;\r\n    }\r\n    function getCounter() public returns(uint){\r\n        return this._currentId();\r\n    }\r\n           \r\n\r\n\r\n}",
  "sourcePath": "C:/Users/Gayardo/Desktop/monnaieWork/Ux_Ethereum/contracts/Token.sol",
  "compiler": {
    "name": "solc",
    "version": "0.5.12+commit.7709ece9.Emscripten.clang"
  },
  "schemaVersion": "3.0.19",
  "updatedAt": "2019-12-07T16:59:53.395Z",
  "networkType": "ethereum",
  "devdoc": {
    "details": "see https://eips.ethereum.org/EIPS/eip-721",
    "methods": {
      "approve(address,uint256)": {
        "details": "Approves another address to transfer the given token ID The zero address indicates there is no approved address. There can only be one approved address per token at a given time. Can only be called by the token owner or an approved operator.",
        "params": {
          "to": "address to be approved for the given token ID",
          "tokenId": "uint256 ID of the token to be approved"
        }
      },
      "balanceOf(address)": {
        "details": "Gets the balance of the specified address.",
        "params": {
          "owner": "address to query the balance of"
        },
        "return": "uint256 representing the amount owned by the passed address"
      },
      "getApproved(uint256)": {
        "details": "Gets the approved address for a token ID, or zero if no address set Reverts if the token ID does not exist.",
        "params": {
          "tokenId": "uint256 ID of the token to query the approval of"
        },
        "return": "address currently approved for the given token ID"
      },
      "isApprovedForAll(address,address)": {
        "details": "Tells whether an operator is approved by a given owner.",
        "params": {
          "operator": "operator address which you want to query the approval of",
          "owner": "owner address which you want to query the approval of"
        },
        "return": "bool whether the given operator is approved by the given owner"
      },
      "ownerOf(uint256)": {
        "details": "Gets the owner of the specified token ID.",
        "params": {
          "tokenId": "uint256 ID of the token to query the owner of"
        },
        "return": "address currently marked as the owner of the given token ID"
      },
      "safeTransferFrom(address,address,uint256)": {
        "details": "Safely transfers the ownership of a given token ID to another address If the target address is a contract, it must implement {IERC721Receiver-onERC721Received}, which is called upon a safe transfer, and return the magic value `bytes4(keccak256(\"onERC721Received(address,address,uint256,bytes)\"))`; otherwise, the transfer is reverted. Requires the msg.sender to be the owner, approved, or operator",
        "params": {
          "from": "current owner of the token",
          "to": "address to receive the ownership of the given token ID",
          "tokenId": "uint256 ID of the token to be transferred"
        }
      },
      "safeTransferFrom(address,address,uint256,bytes)": {
        "details": "Safely transfers the ownership of a given token ID to another address If the target address is a contract, it must implement {IERC721Receiver-onERC721Received}, which is called upon a safe transfer, and return the magic value `bytes4(keccak256(\"onERC721Received(address,address,uint256,bytes)\"))`; otherwise, the transfer is reverted. Requires the _msgSender() to be the owner, approved, or operator",
        "params": {
          "_data": "bytes data to send along with a safe transfer check",
          "from": "current owner of the token",
          "to": "address to receive the ownership of the given token ID",
          "tokenId": "uint256 ID of the token to be transferred"
        }
      },
      "setApprovalForAll(address,bool)": {
        "details": "Sets or unsets the approval of a given operator An operator is allowed to transfer all tokens of the sender on their behalf.",
        "params": {
          "approved": "representing the status of the approval to be set",
          "to": "operator address to set the approval"
        }
      },
      "supportsInterface(bytes4)": {
        "details": "See {IERC165-supportsInterface}.     * Time complexity O(1), guaranteed to always use less than 30 000 gas."
      },
      "transferFrom(address,address,uint256)": {
        "details": "Transfers the ownership of a given token ID to another address. Usage of this method is discouraged, use {safeTransferFrom} whenever possible. Requires the msg.sender to be the owner, approved, or operator.",
        "params": {
          "from": "current owner of the token",
          "to": "address to receive the ownership of the given token ID",
          "tokenId": "uint256 ID of the token to be transferred"
        }
      }
    },
    "title": "ERC721 Non-Fungible Token Standard basic implementation"
  },
  "userdoc": {
    "methods": {}
  }
}