{
  "contractName": "WhitelistAdminRoleMock",
  "abi": [
    {
      "anonymous": false,
      "inputs": [
        {
          "indexed": true,
          "internalType": "address",
          "name": "account",
          "type": "address"
        }
      ],
      "name": "WhitelistAdminAdded",
      "type": "event"
    },
    {
      "anonymous": false,
      "inputs": [
        {
          "indexed": true,
          "internalType": "address",
          "name": "account",
          "type": "address"
        }
      ],
      "name": "WhitelistAdminRemoved",
      "type": "event"
    },
    {
      "constant": false,
      "inputs": [
        {
          "internalType": "address",
          "name": "account",
          "type": "address"
        }
      ],
      "name": "addWhitelistAdmin",
      "outputs": [],
      "payable": false,
      "stateMutability": "nonpayable",
      "type": "function"
    },
    {
      "constant": true,
      "inputs": [
        {
          "internalType": "address",
          "name": "account",
          "type": "address"
        }
      ],
      "name": "isWhitelistAdmin",
      "outputs": [
        {
          "internalType": "bool",
          "name": "",
          "type": "bool"
        }
      ],
      "payable": false,
      "stateMutability": "view",
      "type": "function"
    },
    {
      "constant": false,
      "inputs": [],
      "name": "renounceWhitelistAdmin",
      "outputs": [],
      "payable": false,
      "stateMutability": "nonpayable",
      "type": "function"
    },
    {
      "constant": false,
      "inputs": [
        {
          "internalType": "address",
          "name": "account",
          "type": "address"
        }
      ],
      "name": "removeWhitelistAdmin",
      "outputs": [],
      "payable": false,
      "stateMutability": "nonpayable",
      "type": "function"
    },
    {
      "constant": true,
      "inputs": [],
      "name": "onlyWhitelistAdminMock",
      "outputs": [],
      "payable": false,
      "stateMutability": "view",
      "type": "function"
    }
  ],
  "bytecode": "0x608060405261065d806100136000396000f3fe608060405234801561001057600080fd5b50600436106100575760003560e01c80634c5a628c1461005c578063564c74a3146100665780636897e974146100705780637362d9c8146100b4578063bb5f747b146100f8575b600080fd5b610064610154565b005b61006e610166565b005b6100b26004803603602081101561008657600080fd5b81019080803573ffffffffffffffffffffffffffffffffffffffff1690602001909291905050506101cd565b005b6100f6600480360360208110156100ca57600080fd5b81019080803573ffffffffffffffffffffffffffffffffffffffff1690602001909291905050506101d9565b005b61013a6004803603602081101561010e57600080fd5b81019080803573ffffffffffffffffffffffffffffffffffffffff16906020019092919050505061024a565b604051808215151515815260200191505060405180910390f35b61016461015f610267565b61026f565b565b610176610171610267565b61024a565b6101cb576040517f08c379a00000000000000000000000000000000000000000000000000000000081526004018080602001828103825260408152602001806105e96040913960400191505060405180910390fd5b565b6101d68161026f565b50565b6101e96101e4610267565b61024a565b61023e576040517f08c379a00000000000000000000000000000000000000000000000000000000081526004018080602001828103825260408152602001806105e96040913960400191505060405180910390fd5b6102478161027b565b50565b60006102608260006102d590919063ffffffff16565b9050919050565b600033905090565b610278816103b3565b50565b61028f81600061040d90919063ffffffff16565b8073ffffffffffffffffffffffffffffffffffffffff167f22380c05984257a1cb900161c713dd71d39e74820f1aea43bd3f1bdd2096129960405160405180910390a250565b60008073ffffffffffffffffffffffffffffffffffffffff168273ffffffffffffffffffffffffffffffffffffffff16141561035c576040517f08c379a00000000000000000000000000000000000000000000000000000000081526004018080602001828103825260228152602001806105c76022913960400191505060405180910390fd5b8260000160008373ffffffffffffffffffffffffffffffffffffffff1673ffffffffffffffffffffffffffffffffffffffff16815260200190815260200160002060009054906101000a900460ff16905092915050565b6103c78160006104e890919063ffffffff16565b8073ffffffffffffffffffffffffffffffffffffffff167f0a8eb35e5ca14b3d6f28e4abf2f128dbab231a58b56e89beb5d636115001e16560405160405180910390a250565b61041782826102d5565b1561048a576040517f08c379a000000000000000000000000000000000000000000000000000000000815260040180806020018281038252601f8152602001807f526f6c65733a206163636f756e7420616c72656164792068617320726f6c650081525060200191505060405180910390fd5b60018260000160008373ffffffffffffffffffffffffffffffffffffffff1673ffffffffffffffffffffffffffffffffffffffff16815260200190815260200160002060006101000a81548160ff0219169083151502179055505050565b6104f282826102d5565b610547576040517f08c379a00000000000000000000000000000000000000000000000000000000081526004018080602001828103825260218152602001806105a66021913960400191505060405180910390fd5b60008260000160008373ffffffffffffffffffffffffffffffffffffffff1673ffffffffffffffffffffffffffffffffffffffff16815260200190815260200160002060006101000a81548160ff021916908315150217905550505056fe526f6c65733a206163636f756e7420646f6573206e6f74206861766520726f6c65526f6c65733a206163636f756e7420697320746865207a65726f206164647265737357686974656c69737441646d696e526f6c653a2063616c6c657220646f6573206e6f742068617665207468652057686974656c69737441646d696e20726f6c65a265627a7a723158200f107f61679756adf504ff1d8bdce20ade56c81dcb53f6ac4272bf065c3c3b6564736f6c634300050c0032",
  "source": "pragma solidity ^0.5.0;\n\nimport \"../access/roles/WhitelistAdminRole.sol\";\n\ncontract WhitelistAdminRoleMock is WhitelistAdminRole {\n    function removeWhitelistAdmin(address account) public {\n        _removeWhitelistAdmin(account);\n    }\n\n    function onlyWhitelistAdminMock() public view onlyWhitelistAdmin {\n        // solhint-disable-previous-line no-empty-blocks\n    }\n\n    // Causes a compilation error if super._removeWhitelistAdmin is not internal\n    function _removeWhitelistAdmin(address account) internal {\n        super._removeWhitelistAdmin(account);\n    }\n}\n",
  "sourcePath": "C:/Users/Gayardo/Desktop/monnaieWork/Ux_Ethereum/contracts/library/mocks/WhitelistAdminRoleMock.sol",
  "compiler": {
    "name": "solc",
    "version": "0.5.12+commit.7709ece9.Emscripten.clang"
  },
  "schemaVersion": "3.0.19",
  "updatedAt": "2019-12-04T11:28:59.013Z",
  "devdoc": {
    "methods": {}
  },
  "userdoc": {
    "methods": {}
  }
}