{
  "contractName": "WhitelistedRoleMock",
  "abi": [
    {
      "anonymous": false,
      "inputs": [
        {
          "indexed": true,
          "internalType": "address",
          "name": "account",
          "type": "address"
        }
      ],
      "name": "WhitelistAdminAdded",
      "type": "event"
    },
    {
      "anonymous": false,
      "inputs": [
        {
          "indexed": true,
          "internalType": "address",
          "name": "account",
          "type": "address"
        }
      ],
      "name": "WhitelistAdminRemoved",
      "type": "event"
    },
    {
      "anonymous": false,
      "inputs": [
        {
          "indexed": true,
          "internalType": "address",
          "name": "account",
          "type": "address"
        }
      ],
      "name": "WhitelistedAdded",
      "type": "event"
    },
    {
      "anonymous": false,
      "inputs": [
        {
          "indexed": true,
          "internalType": "address",
          "name": "account",
          "type": "address"
        }
      ],
      "name": "WhitelistedRemoved",
      "type": "event"
    },
    {
      "constant": false,
      "inputs": [
        {
          "internalType": "address",
          "name": "account",
          "type": "address"
        }
      ],
      "name": "addWhitelistAdmin",
      "outputs": [],
      "payable": false,
      "stateMutability": "nonpayable",
      "type": "function"
    },
    {
      "constant": false,
      "inputs": [
        {
          "internalType": "address",
          "name": "account",
          "type": "address"
        }
      ],
      "name": "addWhitelisted",
      "outputs": [],
      "payable": false,
      "stateMutability": "nonpayable",
      "type": "function"
    },
    {
      "constant": true,
      "inputs": [
        {
          "internalType": "address",
          "name": "account",
          "type": "address"
        }
      ],
      "name": "isWhitelistAdmin",
      "outputs": [
        {
          "internalType": "bool",
          "name": "",
          "type": "bool"
        }
      ],
      "payable": false,
      "stateMutability": "view",
      "type": "function"
    },
    {
      "constant": true,
      "inputs": [
        {
          "internalType": "address",
          "name": "account",
          "type": "address"
        }
      ],
      "name": "isWhitelisted",
      "outputs": [
        {
          "internalType": "bool",
          "name": "",
          "type": "bool"
        }
      ],
      "payable": false,
      "stateMutability": "view",
      "type": "function"
    },
    {
      "constant": false,
      "inputs": [
        {
          "internalType": "address",
          "name": "account",
          "type": "address"
        }
      ],
      "name": "removeWhitelisted",
      "outputs": [],
      "payable": false,
      "stateMutability": "nonpayable",
      "type": "function"
    },
    {
      "constant": false,
      "inputs": [],
      "name": "renounceWhitelistAdmin",
      "outputs": [],
      "payable": false,
      "stateMutability": "nonpayable",
      "type": "function"
    },
    {
      "constant": false,
      "inputs": [],
      "name": "renounceWhitelisted",
      "outputs": [],
      "payable": false,
      "stateMutability": "nonpayable",
      "type": "function"
    },
    {
      "constant": true,
      "inputs": [],
      "name": "onlyWhitelistedMock",
      "outputs": [],
      "payable": false,
      "stateMutability": "view",
      "type": "function"
    }
  ],
  "bytecode": "0x608060405261091f806100136000396000f3fe608060405234801561001057600080fd5b50600436106100885760003560e01c80637362d9c81161005b5780637362d9c81461017b5780637491c97e146101bf578063bb5f747b146101c9578063d6cd94731461022557610088565b806310154bad1461008d578063291d9549146100d15780633af32abf146101155780634c5a628c14610171575b600080fd5b6100cf600480360360208110156100a357600080fd5b81019080803573ffffffffffffffffffffffffffffffffffffffff16906020019092919050505061022f565b005b610113600480360360208110156100e757600080fd5b81019080803573ffffffffffffffffffffffffffffffffffffffff1690602001909291905050506102a0565b005b6101576004803603602081101561012b57600080fd5b81019080803573ffffffffffffffffffffffffffffffffffffffff169060200190929190505050610311565b604051808215151515815260200191505060405180910390f35b61017961032e565b005b6101bd6004803603602081101561019157600080fd5b81019080803573ffffffffffffffffffffffffffffffffffffffff169060200190929190505050610340565b005b6101c76103b1565b005b61020b600480360360208110156101df57600080fd5b81019080803573ffffffffffffffffffffffffffffffffffffffff169060200190929190505050610418565b604051808215151515815260200191505060405180910390f35b61022d610435565b005b61023f61023a610447565b610418565b610294576040517f08c379a00000000000000000000000000000000000000000000000000000000081526004018080602001828103825260408152602001806108716040913960400191505060405180910390fd5b61029d8161044f565b50565b6102b06102ab610447565b610418565b610305576040517f08c379a00000000000000000000000000000000000000000000000000000000081526004018080602001828103825260408152602001806108716040913960400191505060405180910390fd5b61030e816104a9565b50565b600061032782600161050390919063ffffffff16565b9050919050565b61033e610339610447565b6105e1565b565b61035061034b610447565b610418565b6103a5576040517f08c379a00000000000000000000000000000000000000000000000000000000081526004018080602001828103825260408152602001806108716040913960400191505060405180910390fd5b6103ae8161063b565b50565b6103c16103bc610447565b610311565b610416576040517f08c379a000000000000000000000000000000000000000000000000000000000815260040180806020018281038252603a8152602001806108b1603a913960400191505060405180910390fd5b565b600061042e82600061050390919063ffffffff16565b9050919050565b610445610440610447565b6104a9565b565b600033905090565b61046381600161069590919063ffffffff16565b8073ffffffffffffffffffffffffffffffffffffffff167fee1504a83b6d4a361f4c1dc78ab59bfa30d6a3b6612c403e86bb01ef2984295f60405160405180910390a250565b6104bd81600161077090919063ffffffff16565b8073ffffffffffffffffffffffffffffffffffffffff167f270d9b30cf5b0793bbfd54c9d5b94aeb49462b8148399000265144a8722da6b660405160405180910390a250565b60008073ffffffffffffffffffffffffffffffffffffffff168273ffffffffffffffffffffffffffffffffffffffff16141561058a576040517f08c379a000000000000000000000000000000000000000000000000000000000815260040180806020018281038252602281526020018061084f6022913960400191505060405180910390fd5b8260000160008373ffffffffffffffffffffffffffffffffffffffff1673ffffffffffffffffffffffffffffffffffffffff16815260200190815260200160002060009054906101000a900460ff16905092915050565b6105f581600061077090919063ffffffff16565b8073ffffffffffffffffffffffffffffffffffffffff167f0a8eb35e5ca14b3d6f28e4abf2f128dbab231a58b56e89beb5d636115001e16560405160405180910390a250565b61064f81600061069590919063ffffffff16565b8073ffffffffffffffffffffffffffffffffffffffff167f22380c05984257a1cb900161c713dd71d39e74820f1aea43bd3f1bdd2096129960405160405180910390a250565b61069f8282610503565b15610712576040517f08c379a000000000000000000000000000000000000000000000000000000000815260040180806020018281038252601f8152602001807f526f6c65733a206163636f756e7420616c72656164792068617320726f6c650081525060200191505060405180910390fd5b60018260000160008373ffffffffffffffffffffffffffffffffffffffff1673ffffffffffffffffffffffffffffffffffffffff16815260200190815260200160002060006101000a81548160ff0219169083151502179055505050565b61077a8282610503565b6107cf576040517f08c379a000000000000000000000000000000000000000000000000000000000815260040180806020018281038252602181526020018061082e6021913960400191505060405180910390fd5b60008260000160008373ffffffffffffffffffffffffffffffffffffffff1673ffffffffffffffffffffffffffffffffffffffff16815260200190815260200160002060006101000a81548160ff021916908315150217905550505056fe526f6c65733a206163636f756e7420646f6573206e6f74206861766520726f6c65526f6c65733a206163636f756e7420697320746865207a65726f206164647265737357686974656c69737441646d696e526f6c653a2063616c6c657220646f6573206e6f742068617665207468652057686974656c69737441646d696e20726f6c6557686974656c6973746564526f6c653a2063616c6c657220646f6573206e6f742068617665207468652057686974656c697374656420726f6c65a265627a7a72315820c152121d907b139da4363565a892680672a8eb7e9e5bf88ce1eb42642747ae2764736f6c634300050c0032",
  "source": "pragma solidity ^0.5.0;\n\nimport \"../access/roles/WhitelistedRole.sol\";\n\ncontract WhitelistedRoleMock is WhitelistedRole {\n    function onlyWhitelistedMock() public view onlyWhitelisted {\n        // solhint-disable-previous-line no-empty-blocks\n    }\n}\n",
  "sourcePath": "C:/Users/Gayardo/Desktop/monnaieWork/Ux_Ethereum/contracts/library/mocks/WhitelistedRoleMock.sol",
  "compiler": {
    "name": "solc",
    "version": "0.5.12+commit.7709ece9.Emscripten.clang"
  },
  "schemaVersion": "3.0.19",
  "updatedAt": "2019-12-04T11:28:59.016Z",
  "devdoc": {
    "methods": {}
  },
  "userdoc": {
    "methods": {}
  }
}